{
	"src/State/AccountState.sol": {
		"AccountState": {
			"abi": [
				{
					"inputs": [
						{
							"internalType": "address",
							"name": "_owner",
							"type": "address"
						}
					],
					"stateMutability": "nonpayable",
					"type": "constructor"
				},
				{
					"inputs": [
						{
							"internalType": "uint256",
							"name": "_id",
							"type": "uint256"
						},
						{
							"internalType": "string",
							"name": "_token",
							"type": "string"
						},
						{
							"internalType": "uint256",
							"name": "_value",
							"type": "uint256"
						},
						{
							"internalType": "uint256",
							"name": "_price",
							"type": "uint256"
						}
					],
					"name": "create_order",
					"outputs": [],
					"stateMutability": "payable",
					"type": "function"
				},
				{
					"inputs": [],
					"name": "owner",
					"outputs": [
						{
							"internalType": "address",
							"name": "",
							"type": "address"
						}
					],
					"stateMutability": "view",
					"type": "function"
				},
				{
					"inputs": [
						{
							"internalType": "uint256",
							"name": "_id",
							"type": "uint256"
						}
					],
					"name": "test",
					"outputs": [
						{
							"components": [
								{
									"internalType": "string",
									"name": "token",
									"type": "string"
								},
								{
									"internalType": "uint256",
									"name": "value",
									"type": "uint256"
								},
								{
									"internalType": "uint256",
									"name": "price",
									"type": "uint256"
								},
								{
									"internalType": "bool",
									"name": "existed",
									"type": "bool"
								}
							],
							"internalType": "struct AccountState.Order",
							"name": "",
							"type": "tuple"
						}
					],
					"stateMutability": "view",
					"type": "function"
				},
				{
					"inputs": [
						{
							"internalType": "uint256",
							"name": "_id",
							"type": "uint256"
						},
						{
							"components": [
								{
									"internalType": "string",
									"name": "token",
									"type": "string"
								},
								{
									"internalType": "uint256",
									"name": "value",
									"type": "uint256"
								},
								{
									"internalType": "uint256",
									"name": "price",
									"type": "uint256"
								},
								{
									"internalType": "bool",
									"name": "existed",
									"type": "bool"
								}
							],
							"internalType": "struct AccountState.Order",
							"name": "_newOrder",
							"type": "tuple"
						}
					],
					"name": "update_order",
					"outputs": [],
					"stateMutability": "payable",
					"type": "function"
				}
			],
			"devdoc": {
				"kind": "dev",
				"methods": {},
				"version": 1
			},
			"evm": {
				"assembly": "    /* \"src/State/AccountState.sol\":70:1446  contract AccountState {... */\n  mstore(0x40, 0x80)\n    /* \"src/State/AccountState.sol\":314:375  constructor(address _owner) {... */\n  callvalue\n  dup1\n  iszero\n  tag_1\n  jumpi\n  0x00\n  dup1\n  revert\ntag_1:\n  pop\n  mload(0x40)\n  sub(codesize, bytecodeSize)\n  dup1\n  bytecodeSize\n  dup4\n  codecopy\n  dup2\n  dup2\n  add\n  0x40\n  mstore\n  dup2\n  add\n  swap1\n  tag_2\n  swap2\n  swap1\n  tag_3\n  jump\t// in\ntag_2:\n    /* \"src/State/AccountState.sol\":361:367  _owner */\n  dup1\n    /* \"src/State/AccountState.sol\":353:358  owner */\n  0x00\n  dup1\n    /* \"src/State/AccountState.sol\":353:367  owner = _owner */\n  0x0100\n  exp\n  dup2\n  sload\n  dup2\n  0xffffffffffffffffffffffffffffffffffffffff\n  mul\n  not\n  and\n  swap1\n  dup4\n  0xffffffffffffffffffffffffffffffffffffffff\n  and\n  mul\n  or\n  swap1\n  sstore\n  pop\n    /* \"src/State/AccountState.sol\":314:375  constructor(address _owner) {... */\n  pop\n    /* \"src/State/AccountState.sol\":70:1446  contract AccountState {... */\n  jump(tag_6)\n    /* \"#utility.yul\":88:205   */\ntag_8:\n    /* \"#utility.yul\":197:198   */\n  0x00\n    /* \"#utility.yul\":194:195   */\n  dup1\n    /* \"#utility.yul\":187:199   */\n  revert\n    /* \"#utility.yul\":334:460   */\ntag_10:\n    /* \"#utility.yul\":371:378   */\n  0x00\n    /* \"#utility.yul\":411:453   */\n  0xffffffffffffffffffffffffffffffffffffffff\n    /* \"#utility.yul\":404:409   */\n  dup3\n    /* \"#utility.yul\":400:454   */\n  and\n    /* \"#utility.yul\":389:454   */\n  swap1\n  pop\n    /* \"#utility.yul\":334:460   */\n  swap2\n  swap1\n  pop\n  jump\t// out\n    /* \"#utility.yul\":466:562   */\ntag_11:\n    /* \"#utility.yul\":503:510   */\n  0x00\n    /* \"#utility.yul\":532:556   */\n  tag_20\n    /* \"#utility.yul\":550:555   */\n  dup3\n    /* \"#utility.yul\":532:556   */\n  tag_10\n  jump\t// in\ntag_20:\n    /* \"#utility.yul\":521:556   */\n  swap1\n  pop\n    /* \"#utility.yul\":466:562   */\n  swap2\n  swap1\n  pop\n  jump\t// out\n    /* \"#utility.yul\":568:690   */\ntag_12:\n    /* \"#utility.yul\":641:665   */\n  tag_22\n    /* \"#utility.yul\":659:664   */\n  dup2\n    /* \"#utility.yul\":641:665   */\n  tag_11\n  jump\t// in\ntag_22:\n    /* \"#utility.yul\":634:639   */\n  dup2\n    /* \"#utility.yul\":631:666   */\n  eq\n    /* \"#utility.yul\":621:684   */\n  tag_23\n  jumpi\n    /* \"#utility.yul\":680:681   */\n  0x00\n    /* \"#utility.yul\":677:678   */\n  dup1\n    /* \"#utility.yul\":670:682   */\n  revert\n    /* \"#utility.yul\":621:684   */\ntag_23:\n    /* \"#utility.yul\":568:690   */\n  pop\n  jump\t// out\n    /* \"#utility.yul\":696:839   */\ntag_13:\n    /* \"#utility.yul\":753:758   */\n  0x00\n    /* \"#utility.yul\":784:790   */\n  dup2\n    /* \"#utility.yul\":778:791   */\n  mload\n    /* \"#utility.yul\":769:791   */\n  swap1\n  pop\n    /* \"#utility.yul\":800:833   */\n  tag_25\n    /* \"#utility.yul\":827:832   */\n  dup2\n    /* \"#utility.yul\":800:833   */\n  tag_12\n  jump\t// in\ntag_25:\n    /* \"#utility.yul\":696:839   */\n  swap3\n  swap2\n  pop\n  pop\n  jump\t// out\n    /* \"#utility.yul\":845:1196   */\ntag_3:\n    /* \"#utility.yul\":915:921   */\n  0x00\n    /* \"#utility.yul\":964:966   */\n  0x20\n    /* \"#utility.yul\":952:961   */\n  dup3\n    /* \"#utility.yul\":943:950   */\n  dup5\n    /* \"#utility.yul\":939:962   */\n  sub\n    /* \"#utility.yul\":935:967   */\n  slt\n    /* \"#utility.yul\":932:1051   */\n  iszero\n  tag_27\n  jumpi\n    /* \"#utility.yul\":970:1049   */\n  tag_28\n  tag_8\n  jump\t// in\ntag_28:\n    /* \"#utility.yul\":932:1051   */\ntag_27:\n    /* \"#utility.yul\":1090:1091   */\n  0x00\n    /* \"#utility.yul\":1115:1179   */\n  tag_29\n    /* \"#utility.yul\":1171:1178   */\n  dup5\n    /* \"#utility.yul\":1162:1168   */\n  dup3\n    /* \"#utility.yul\":1151:1160   */\n  dup6\n    /* \"#utility.yul\":1147:1169   */\n  add\n    /* \"#utility.yul\":1115:1179   */\n  tag_13\n  jump\t// in\ntag_29:\n    /* \"#utility.yul\":1105:1179   */\n  swap2\n  pop\n    /* \"#utility.yul\":1061:1189   */\n  pop\n    /* \"#utility.yul\":845:1196   */\n  swap3\n  swap2\n  pop\n  pop\n  jump\t// out\n    /* \"src/State/AccountState.sol\":70:1446  contract AccountState {... */\ntag_6:\n  dataSize(sub_0)\n  dup1\n  dataOffset(sub_0)\n  0x00\n  codecopy\n  0x00\n  return\nstop\n\nsub_0: assembly {\n        /* \"src/State/AccountState.sol\":70:1446  contract AccountState {... */\n      mstore(0x40, 0x80)\n      jumpi(tag_1, lt(calldatasize, 0x04))\n      shr(0xe0, calldataload(0x00))\n      dup1\n      0x2832686f\n      eq\n      tag_2\n      jumpi\n      dup1\n      0x29e99f07\n      eq\n      tag_3\n      jumpi\n      dup1\n      0x8da5cb5b\n      eq\n      tag_4\n      jumpi\n      dup1\n      0xdc1fdba7\n      eq\n      tag_5\n      jumpi\n    tag_1:\n      0x00\n      dup1\n      revert\n        /* \"src/State/AccountState.sol\":554:853  function create_order(uint256 _id, string memory _token, uint256 _value, uint256 _price) external payable  {... */\n    tag_2:\n      tag_6\n      0x04\n      dup1\n      calldatasize\n      sub\n      dup2\n      add\n      swap1\n      tag_7\n      swap2\n      swap1\n      tag_8\n      jump\t// in\n    tag_7:\n      tag_9\n      jump\t// in\n    tag_6:\n      stop\n        /* \"src/State/AccountState.sol\":1344:1443  function test(uint256 _id) public view returns (Order memory) {... */\n    tag_3:\n      callvalue\n      dup1\n      iszero\n      tag_10\n      jumpi\n      0x00\n      dup1\n      revert\n    tag_10:\n      pop\n      tag_11\n      0x04\n      dup1\n      calldatasize\n      sub\n      dup2\n      add\n      swap1\n      tag_12\n      swap2\n      swap1\n      tag_13\n      jump\t// in\n    tag_12:\n      tag_14\n      jump\t// in\n    tag_11:\n      mload(0x40)\n      tag_15\n      swap2\n      swap1\n      tag_16\n      jump\t// in\n    tag_15:\n      mload(0x40)\n      dup1\n      swap2\n      sub\n      swap1\n      return\n        /* \"src/State/AccountState.sol\":99:119  address public owner */\n    tag_4:\n      callvalue\n      dup1\n      iszero\n      tag_17\n      jumpi\n      0x00\n      dup1\n      revert\n    tag_17:\n      pop\n      tag_18\n      tag_19\n      jump\t// in\n    tag_18:\n      mload(0x40)\n      tag_20\n      swap2\n      swap1\n      tag_21\n      jump\t// in\n    tag_20:\n      mload(0x40)\n      dup1\n      swap2\n      sub\n      swap1\n      return\n        /* \"src/State/AccountState.sol\":865:1068  function update_order(uint256 _id, Order memory _newOrder) external payable onlyOwner(\"update\") {... */\n    tag_5:\n      tag_22\n      0x04\n      dup1\n      calldatasize\n      sub\n      dup2\n      add\n      swap1\n      tag_23\n      swap2\n      swap1\n      tag_24\n      jump\t// in\n    tag_23:\n      tag_25\n      jump\t// in\n    tag_22:\n      stop\n        /* \"src/State/AccountState.sol\":554:853  function create_order(uint256 _id, string memory _token, uint256 _value, uint256 _price) external payable  {... */\n    tag_9:\n        /* \"src/State/AccountState.sol\":788:823  Order(_token, _value, _price, true) */\n      mload(0x40)\n      dup1\n      0x80\n      add\n      0x40\n      mstore\n      dup1\n        /* \"src/State/AccountState.sol\":794:800  _token */\n      dup5\n        /* \"src/State/AccountState.sol\":788:823  Order(_token, _value, _price, true) */\n      dup2\n      mstore\n      0x20\n      add\n        /* \"src/State/AccountState.sol\":802:808  _value */\n      dup4\n        /* \"src/State/AccountState.sol\":788:823  Order(_token, _value, _price, true) */\n      dup2\n      mstore\n      0x20\n      add\n        /* \"src/State/AccountState.sol\":810:816  _price */\n      dup3\n        /* \"src/State/AccountState.sol\":788:823  Order(_token, _value, _price, true) */\n      dup2\n      mstore\n      0x20\n      add\n        /* \"src/State/AccountState.sol\":818:822  true */\n      0x01\n        /* \"src/State/AccountState.sol\":788:823  Order(_token, _value, _price, true) */\n      iszero\n      iszero\n      dup2\n      mstore\n      pop\n        /* \"src/State/AccountState.sol\":774:780  orders */\n      0x02\n        /* \"src/State/AccountState.sol\":774:785  orders[_id] */\n      0x00\n        /* \"src/State/AccountState.sol\":781:784  _id */\n      dup7\n        /* \"src/State/AccountState.sol\":774:785  orders[_id] */\n      dup2\n      mstore\n      0x20\n      add\n      swap1\n      dup2\n      mstore\n      0x20\n      add\n      0x00\n      keccak256\n        /* \"src/State/AccountState.sol\":774:823  orders[_id] = Order(_token, _value, _price, true) */\n      0x00\n      dup3\n      add\n      mload\n      dup2\n      0x00\n      add\n      swap1\n      dup2\n      tag_27\n      swap2\n      swap1\n      tag_28\n      jump\t// in\n    tag_27:\n      pop\n      0x20\n      dup3\n      add\n      mload\n      dup2\n      0x01\n      add\n      sstore\n      0x40\n      dup3\n      add\n      mload\n      dup2\n      0x02\n      add\n      sstore\n      0x60\n      dup3\n      add\n      mload\n      dup2\n      0x03\n      add\n      exp(0x0100, 0x00)\n      dup2\n      sload\n      dup2\n      0xff\n      mul\n      not\n      and\n      swap1\n      dup4\n      iszero\n      iszero\n      mul\n      or\n      swap1\n      sstore\n      pop\n      swap1\n      pop\n      pop\n        /* \"src/State/AccountState.sol\":834:839  total */\n      0x01\n      0x00\n        /* \"src/State/AccountState.sol\":834:841  total++ */\n      dup2\n      sload\n      dup1\n      swap3\n      swap2\n      swap1\n      tag_29\n      swap1\n      tag_30\n      jump\t// in\n    tag_29:\n      swap2\n      swap1\n      pop\n      sstore\n      pop\n        /* \"src/State/AccountState.sol\":554:853  function create_order(uint256 _id, string memory _token, uint256 _value, uint256 _price) external payable  {... */\n      pop\n      pop\n      pop\n      pop\n      jump\t// out\n        /* \"src/State/AccountState.sol\":1344:1443  function test(uint256 _id) public view returns (Order memory) {... */\n    tag_14:\n        /* \"src/State/AccountState.sol\":1392:1404  Order memory */\n      tag_31\n      tag_32\n      jump\t// in\n    tag_31:\n        /* \"src/State/AccountState.sol\":1424:1430  orders */\n      0x02\n        /* \"src/State/AccountState.sol\":1424:1435  orders[_id] */\n      0x00\n        /* \"src/State/AccountState.sol\":1431:1434  _id */\n      dup4\n        /* \"src/State/AccountState.sol\":1424:1435  orders[_id] */\n      dup2\n      mstore\n      0x20\n      add\n      swap1\n      dup2\n      mstore\n      0x20\n      add\n      0x00\n      keccak256\n        /* \"src/State/AccountState.sol\":1417:1435  return orders[_id] */\n      mload(0x40)\n      dup1\n      0x80\n      add\n      0x40\n      mstore\n      swap1\n      dup2\n      0x00\n      dup3\n      add\n      dup1\n      sload\n      tag_34\n      swap1\n      tag_35\n      jump\t// in\n    tag_34:\n      dup1\n      0x1f\n      add\n      0x20\n      dup1\n      swap2\n      div\n      mul\n      0x20\n      add\n      mload(0x40)\n      swap1\n      dup2\n      add\n      0x40\n      mstore\n      dup1\n      swap3\n      swap2\n      swap1\n      dup2\n      dup2\n      mstore\n      0x20\n      add\n      dup3\n      dup1\n      sload\n      tag_36\n      swap1\n      tag_35\n      jump\t// in\n    tag_36:\n      dup1\n      iszero\n      tag_37\n      jumpi\n      dup1\n      0x1f\n      lt\n      tag_38\n      jumpi\n      0x0100\n      dup1\n      dup4\n      sload\n      div\n      mul\n      dup4\n      mstore\n      swap2\n      0x20\n      add\n      swap2\n      jump(tag_37)\n    tag_38:\n      dup3\n      add\n      swap2\n      swap1\n      0x00\n      mstore\n      keccak256(0x00, 0x20)\n      swap1\n    tag_39:\n      dup2\n      sload\n      dup2\n      mstore\n      swap1\n      0x01\n      add\n      swap1\n      0x20\n      add\n      dup1\n      dup4\n      gt\n      tag_39\n      jumpi\n      dup3\n      swap1\n      sub\n      0x1f\n      and\n      dup3\n      add\n      swap2\n    tag_37:\n      pop\n      pop\n      pop\n      pop\n      pop\n      dup2\n      mstore\n      0x20\n      add\n      0x01\n      dup3\n      add\n      sload\n      dup2\n      mstore\n      0x20\n      add\n      0x02\n      dup3\n      add\n      sload\n      dup2\n      mstore\n      0x20\n      add\n      0x03\n      dup3\n      add\n      0x00\n      swap1\n      sload\n      swap1\n      0x0100\n      exp\n      swap1\n      div\n      0xff\n      and\n      iszero\n      iszero\n      iszero\n      iszero\n      dup2\n      mstore\n      pop\n      pop\n      swap1\n      pop\n        /* \"src/State/AccountState.sol\":1344:1443  function test(uint256 _id) public view returns (Order memory) {... */\n      swap2\n      swap1\n      pop\n      jump\t// out\n        /* \"src/State/AccountState.sol\":99:119  address public owner */\n    tag_19:\n      0x00\n      dup1\n      sload\n      swap1\n      0x0100\n      exp\n      swap1\n      div\n      0xffffffffffffffffffffffffffffffffffffffff\n      and\n      dup2\n      jump\t// out\n        /* \"src/State/AccountState.sol\":865:1068  function update_order(uint256 _id, Order memory _newOrder) external payable onlyOwner(\"update\") {... */\n    tag_25:\n        /* \"src/State/AccountState.sol\":383:546  modifier onlyOwner(string memory message) {... */\n      mload(0x40)\n      dup1\n      0x40\n      add\n      0x40\n      mstore\n      dup1\n      0x06\n      dup2\n      mstore\n      0x20\n      add\n      0x7570646174650000000000000000000000000000000000000000000000000000\n      dup2\n      mstore\n      pop\n        /* \"src/State/AccountState.sol\":458:463  owner */\n      0x00\n      dup1\n      sload\n      swap1\n      0x0100\n      exp\n      swap1\n      div\n      0xffffffffffffffffffffffffffffffffffffffff\n      and\n        /* \"src/State/AccountState.sol\":444:463  msg.sender == owner */\n      0xffffffffffffffffffffffffffffffffffffffff\n      and\n        /* \"src/State/AccountState.sol\":444:454  msg.sender */\n      caller\n        /* \"src/State/AccountState.sol\":444:463  msg.sender == owner */\n      0xffffffffffffffffffffffffffffffffffffffff\n      and\n      eq\n        /* \"src/State/AccountState.sol\":516:523  message */\n      dup2\n        /* \"src/State/AccountState.sol\":472:524  abi.encodePacked(\"Only contract owner can\", message) */\n      add(0x20, mload(0x40))\n      tag_41\n      swap2\n      swap1\n      tag_42\n      jump\t// in\n    tag_41:\n      mload(0x40)\n      0x20\n      dup2\n      dup4\n      sub\n      sub\n      dup2\n      mstore\n      swap1\n      0x40\n      mstore\n        /* \"src/State/AccountState.sol\":436:526  require(msg.sender == owner, string(abi.encodePacked(\"Only contract owner can\", message))) */\n      swap1\n      tag_43\n      jumpi\n      mload(0x40)\n      0x08c379a000000000000000000000000000000000000000000000000000000000\n      dup2\n      mstore\n      0x04\n      add\n      tag_44\n      swap2\n      swap1\n      tag_45\n      jump\t// in\n    tag_44:\n      mload(0x40)\n      dup1\n      swap2\n      sub\n      swap1\n      revert\n    tag_43:\n      pop\n        /* \"src/State/AccountState.sol\":981:987  orders */\n      0x02\n        /* \"src/State/AccountState.sol\":981:992  orders[_id] */\n      0x00\n        /* \"src/State/AccountState.sol\":988:991  _id */\n      dup5\n        /* \"src/State/AccountState.sol\":981:992  orders[_id] */\n      dup2\n      mstore\n      0x20\n      add\n      swap1\n      dup2\n      mstore\n      0x20\n      add\n      0x00\n      keccak256\n        /* \"src/State/AccountState.sol\":981:1000  orders[_id].existed */\n      0x03\n      add\n      0x00\n      swap1\n      sload\n      swap1\n      0x0100\n      exp\n      swap1\n      div\n      0xff\n      and\n        /* \"src/State/AccountState.sol\":973:1025  require(orders[_id].existed, \"Order does not exist\") */\n      tag_47\n      jumpi\n      mload(0x40)\n      0x08c379a000000000000000000000000000000000000000000000000000000000\n      dup2\n      mstore\n      0x04\n      add\n      tag_48\n      swap1\n      tag_49\n      jump\t// in\n    tag_48:\n      mload(0x40)\n      dup1\n      swap2\n      sub\n      swap1\n      revert\n    tag_47:\n        /* \"src/State/AccountState.sol\":1051:1060  _newOrder */\n      dup2\n        /* \"src/State/AccountState.sol\":1037:1043  orders */\n      0x02\n        /* \"src/State/AccountState.sol\":1037:1048  orders[_id] */\n      0x00\n        /* \"src/State/AccountState.sol\":1044:1047  _id */\n      dup6\n        /* \"src/State/AccountState.sol\":1037:1048  orders[_id] */\n      dup2\n      mstore\n      0x20\n      add\n      swap1\n      dup2\n      mstore\n      0x20\n      add\n      0x00\n      keccak256\n        /* \"src/State/AccountState.sol\":1037:1060  orders[_id] = _newOrder */\n      0x00\n      dup3\n      add\n      mload\n      dup2\n      0x00\n      add\n      swap1\n      dup2\n      tag_50\n      swap2\n      swap1\n      tag_28\n      jump\t// in\n    tag_50:\n      pop\n      0x20\n      dup3\n      add\n      mload\n      dup2\n      0x01\n      add\n      sstore\n      0x40\n      dup3\n      add\n      mload\n      dup2\n      0x02\n      add\n      sstore\n      0x60\n      dup3\n      add\n      mload\n      dup2\n      0x03\n      add\n      exp(0x0100, 0x00)\n      dup2\n      sload\n      dup2\n      0xff\n      mul\n      not\n      and\n      swap1\n      dup4\n      iszero\n      iszero\n      mul\n      or\n      swap1\n      sstore\n      pop\n      swap1\n      pop\n      pop\n        /* \"src/State/AccountState.sol\":865:1068  function update_order(uint256 _id, Order memory _newOrder) external payable onlyOwner(\"update\") {... */\n      pop\n      pop\n      pop\n      jump\t// out\n    tag_32:\n      mload(0x40)\n      dup1\n      0x80\n      add\n      0x40\n      mstore\n      dup1\n      0x60\n      dup2\n      mstore\n      0x20\n      add\n      0x00\n      dup2\n      mstore\n      0x20\n      add\n      0x00\n      dup2\n      mstore\n      0x20\n      add\n      iszero(iszero(0x00))\n      dup2\n      mstore\n      pop\n      swap1\n      jump\t// out\n        /* \"#utility.yul\":7:82   */\n    tag_51:\n        /* \"#utility.yul\":40:46   */\n      0x00\n        /* \"#utility.yul\":73:75   */\n      0x40\n        /* \"#utility.yul\":67:76   */\n      mload\n        /* \"#utility.yul\":57:76   */\n      swap1\n      pop\n        /* \"#utility.yul\":7:82   */\n      swap1\n      jump\t// out\n        /* \"#utility.yul\":88:205   */\n    tag_52:\n        /* \"#utility.yul\":197:198   */\n      0x00\n        /* \"#utility.yul\":194:195   */\n      dup1\n        /* \"#utility.yul\":187:199   */\n      revert\n        /* \"#utility.yul\":211:328   */\n    tag_53:\n        /* \"#utility.yul\":320:321   */\n      0x00\n        /* \"#utility.yul\":317:318   */\n      dup1\n        /* \"#utility.yul\":310:322   */\n      revert\n        /* \"#utility.yul\":334:411   */\n    tag_54:\n        /* \"#utility.yul\":371:378   */\n      0x00\n        /* \"#utility.yul\":400:405   */\n      dup2\n        /* \"#utility.yul\":389:405   */\n      swap1\n      pop\n        /* \"#utility.yul\":334:411   */\n      swap2\n      swap1\n      pop\n      jump\t// out\n        /* \"#utility.yul\":417:539   */\n    tag_55:\n        /* \"#utility.yul\":490:514   */\n      tag_114\n        /* \"#utility.yul\":508:513   */\n      dup2\n        /* \"#utility.yul\":490:514   */\n      tag_54\n      jump\t// in\n    tag_114:\n        /* \"#utility.yul\":483:488   */\n      dup2\n        /* \"#utility.yul\":480:515   */\n      eq\n        /* \"#utility.yul\":470:533   */\n      tag_115\n      jumpi\n        /* \"#utility.yul\":529:530   */\n      0x00\n        /* \"#utility.yul\":526:527   */\n      dup1\n        /* \"#utility.yul\":519:531   */\n      revert\n        /* \"#utility.yul\":470:533   */\n    tag_115:\n        /* \"#utility.yul\":417:539   */\n      pop\n      jump\t// out\n        /* \"#utility.yul\":545:684   */\n    tag_56:\n        /* \"#utility.yul\":591:596   */\n      0x00\n        /* \"#utility.yul\":629:635   */\n      dup2\n        /* \"#utility.yul\":616:636   */\n      calldataload\n        /* \"#utility.yul\":607:636   */\n      swap1\n      pop\n        /* \"#utility.yul\":645:678   */\n      tag_117\n        /* \"#utility.yul\":672:677   */\n      dup2\n        /* \"#utility.yul\":645:678   */\n      tag_55\n      jump\t// in\n    tag_117:\n        /* \"#utility.yul\":545:684   */\n      swap3\n      swap2\n      pop\n      pop\n      jump\t// out\n        /* \"#utility.yul\":690:807   */\n    tag_57:\n        /* \"#utility.yul\":799:800   */\n      0x00\n        /* \"#utility.yul\":796:797   */\n      dup1\n        /* \"#utility.yul\":789:801   */\n      revert\n        /* \"#utility.yul\":813:930   */\n    tag_58:\n        /* \"#utility.yul\":922:923   */\n      0x00\n        /* \"#utility.yul\":919:920   */\n      dup1\n        /* \"#utility.yul\":912:924   */\n      revert\n        /* \"#utility.yul\":936:1038   */\n    tag_59:\n        /* \"#utility.yul\":977:983   */\n      0x00\n        /* \"#utility.yul\":1028:1030   */\n      0x1f\n        /* \"#utility.yul\":1024:1031   */\n      not\n        /* \"#utility.yul\":1019:1021   */\n      0x1f\n        /* \"#utility.yul\":1012:1017   */\n      dup4\n        /* \"#utility.yul\":1008:1022   */\n      add\n        /* \"#utility.yul\":1004:1032   */\n      and\n        /* \"#utility.yul\":994:1032   */\n      swap1\n      pop\n        /* \"#utility.yul\":936:1038   */\n      swap2\n      swap1\n      pop\n      jump\t// out\n        /* \"#utility.yul\":1044:1224   */\n    tag_60:\n        /* \"#utility.yul\":1092:1169   */\n      0x4e487b7100000000000000000000000000000000000000000000000000000000\n        /* \"#utility.yul\":1089:1090   */\n      0x00\n        /* \"#utility.yul\":1082:1170   */\n      mstore\n        /* \"#utility.yul\":1189:1193   */\n      0x41\n        /* \"#utility.yul\":1186:1187   */\n      0x04\n        /* \"#utility.yul\":1179:1194   */\n      mstore\n        /* \"#utility.yul\":1213:1217   */\n      0x24\n        /* \"#utility.yul\":1210:1211   */\n      0x00\n        /* \"#utility.yul\":1203:1218   */\n      revert\n        /* \"#utility.yul\":1230:1511   */\n    tag_61:\n        /* \"#utility.yul\":1313:1340   */\n      tag_123\n        /* \"#utility.yul\":1335:1339   */\n      dup3\n        /* \"#utility.yul\":1313:1340   */\n      tag_59\n      jump\t// in\n    tag_123:\n        /* \"#utility.yul\":1305:1311   */\n      dup2\n        /* \"#utility.yul\":1301:1341   */\n      add\n        /* \"#utility.yul\":1443:1449   */\n      dup2\n        /* \"#utility.yul\":1431:1441   */\n      dup2\n        /* \"#utility.yul\":1428:1450   */\n      lt\n        /* \"#utility.yul\":1407:1425   */\n      0xffffffffffffffff\n        /* \"#utility.yul\":1395:1405   */\n      dup3\n        /* \"#utility.yul\":1392:1426   */\n      gt\n        /* \"#utility.yul\":1389:1451   */\n      or\n        /* \"#utility.yul\":1386:1474   */\n      iszero\n      tag_124\n      jumpi\n        /* \"#utility.yul\":1454:1472   */\n      tag_125\n      tag_60\n      jump\t// in\n    tag_125:\n        /* \"#utility.yul\":1386:1474   */\n    tag_124:\n        /* \"#utility.yul\":1494:1504   */\n      dup1\n        /* \"#utility.yul\":1490:1492   */\n      0x40\n        /* \"#utility.yul\":1483:1505   */\n      mstore\n        /* \"#utility.yul\":1273:1511   */\n      pop\n        /* \"#utility.yul\":1230:1511   */\n      pop\n      pop\n      jump\t// out\n        /* \"#utility.yul\":1517:1646   */\n    tag_62:\n        /* \"#utility.yul\":1551:1557   */\n      0x00\n        /* \"#utility.yul\":1578:1598   */\n      tag_127\n      tag_51\n      jump\t// in\n    tag_127:\n        /* \"#utility.yul\":1568:1598   */\n      swap1\n      pop\n        /* \"#utility.yul\":1607:1640   */\n      tag_128\n        /* \"#utility.yul\":1635:1639   */\n      dup3\n        /* \"#utility.yul\":1627:1633   */\n      dup3\n        /* \"#utility.yul\":1607:1640   */\n      tag_61\n      jump\t// in\n    tag_128:\n        /* \"#utility.yul\":1517:1646   */\n      swap2\n      swap1\n      pop\n      jump\t// out\n        /* \"#utility.yul\":1652:1960   */\n    tag_63:\n        /* \"#utility.yul\":1714:1718   */\n      0x00\n        /* \"#utility.yul\":1804:1822   */\n      0xffffffffffffffff\n        /* \"#utility.yul\":1796:1802   */\n      dup3\n        /* \"#utility.yul\":1793:1823   */\n      gt\n        /* \"#utility.yul\":1790:1846   */\n      iszero\n      tag_130\n      jumpi\n        /* \"#utility.yul\":1826:1844   */\n      tag_131\n      tag_60\n      jump\t// in\n    tag_131:\n        /* \"#utility.yul\":1790:1846   */\n    tag_130:\n        /* \"#utility.yul\":1864:1893   */\n      tag_132\n        /* \"#utility.yul\":1886:1892   */\n      dup3\n        /* \"#utility.yul\":1864:1893   */\n      tag_59\n      jump\t// in\n    tag_132:\n        /* \"#utility.yul\":1856:1893   */\n      swap1\n      pop\n        /* \"#utility.yul\":1948:1952   */\n      0x20\n        /* \"#utility.yul\":1942:1946   */\n      dup2\n        /* \"#utility.yul\":1938:1953   */\n      add\n        /* \"#utility.yul\":1930:1953   */\n      swap1\n      pop\n        /* \"#utility.yul\":1652:1960   */\n      swap2\n      swap1\n      pop\n      jump\t// out\n        /* \"#utility.yul\":1966:2114   */\n    tag_64:\n        /* \"#utility.yul\":2064:2070   */\n      dup3\n        /* \"#utility.yul\":2059:2062   */\n      dup2\n        /* \"#utility.yul\":2054:2057   */\n      dup4\n        /* \"#utility.yul\":2041:2071   */\n      calldatacopy\n        /* \"#utility.yul\":2105:2106   */\n      0x00\n        /* \"#utility.yul\":2096:2102   */\n      dup4\n        /* \"#utility.yul\":2091:2094   */\n      dup4\n        /* \"#utility.yul\":2087:2103   */\n      add\n        /* \"#utility.yul\":2080:2107   */\n      mstore\n        /* \"#utility.yul\":1966:2114   */\n      pop\n      pop\n      pop\n      jump\t// out\n        /* \"#utility.yul\":2120:2545   */\n    tag_65:\n        /* \"#utility.yul\":2198:2203   */\n      0x00\n        /* \"#utility.yul\":2223:2289   */\n      tag_135\n        /* \"#utility.yul\":2239:2288   */\n      tag_136\n        /* \"#utility.yul\":2281:2287   */\n      dup5\n        /* \"#utility.yul\":2239:2288   */\n      tag_63\n      jump\t// in\n    tag_136:\n        /* \"#utility.yul\":2223:2289   */\n      tag_62\n      jump\t// in\n    tag_135:\n        /* \"#utility.yul\":2214:2289   */\n      swap1\n      pop\n        /* \"#utility.yul\":2312:2318   */\n      dup3\n        /* \"#utility.yul\":2305:2310   */\n      dup2\n        /* \"#utility.yul\":2298:2319   */\n      mstore\n        /* \"#utility.yul\":2350:2354   */\n      0x20\n        /* \"#utility.yul\":2343:2348   */\n      dup2\n        /* \"#utility.yul\":2339:2355   */\n      add\n        /* \"#utility.yul\":2388:2391   */\n      dup5\n        /* \"#utility.yul\":2379:2385   */\n      dup5\n        /* \"#utility.yul\":2374:2377   */\n      dup5\n        /* \"#utility.yul\":2370:2386   */\n      add\n        /* \"#utility.yul\":2367:2392   */\n      gt\n        /* \"#utility.yul\":2364:2476   */\n      iszero\n      tag_137\n      jumpi\n        /* \"#utility.yul\":2395:2474   */\n      tag_138\n      tag_58\n      jump\t// in\n    tag_138:\n        /* \"#utility.yul\":2364:2476   */\n    tag_137:\n        /* \"#utility.yul\":2485:2539   */\n      tag_139\n        /* \"#utility.yul\":2532:2538   */\n      dup5\n        /* \"#utility.yul\":2527:2530   */\n      dup3\n        /* \"#utility.yul\":2522:2525   */\n      dup6\n        /* \"#utility.yul\":2485:2539   */\n      tag_64\n      jump\t// in\n    tag_139:\n        /* \"#utility.yul\":2204:2545   */\n      pop\n        /* \"#utility.yul\":2120:2545   */\n      swap4\n      swap3\n      pop\n      pop\n      pop\n      jump\t// out\n        /* \"#utility.yul\":2565:2905   */\n    tag_66:\n        /* \"#utility.yul\":2621:2626   */\n      0x00\n        /* \"#utility.yul\":2670:2673   */\n      dup3\n        /* \"#utility.yul\":2663:2667   */\n      0x1f\n        /* \"#utility.yul\":2655:2661   */\n      dup4\n        /* \"#utility.yul\":2651:2668   */\n      add\n        /* \"#utility.yul\":2647:2674   */\n      slt\n        /* \"#utility.yul\":2637:2759   */\n      tag_141\n      jumpi\n        /* \"#utility.yul\":2678:2757   */\n      tag_142\n      tag_57\n      jump\t// in\n    tag_142:\n        /* \"#utility.yul\":2637:2759   */\n    tag_141:\n        /* \"#utility.yul\":2795:2801   */\n      dup2\n        /* \"#utility.yul\":2782:2802   */\n      calldataload\n        /* \"#utility.yul\":2820:2899   */\n      tag_143\n        /* \"#utility.yul\":2895:2898   */\n      dup5\n        /* \"#utility.yul\":2887:2893   */\n      dup3\n        /* \"#utility.yul\":2880:2884   */\n      0x20\n        /* \"#utility.yul\":2872:2878   */\n      dup7\n        /* \"#utility.yul\":2868:2885   */\n      add\n        /* \"#utility.yul\":2820:2899   */\n      tag_65\n      jump\t// in\n    tag_143:\n        /* \"#utility.yul\":2811:2899   */\n      swap2\n      pop\n        /* \"#utility.yul\":2627:2905   */\n      pop\n        /* \"#utility.yul\":2565:2905   */\n      swap3\n      swap2\n      pop\n      pop\n      jump\t// out\n        /* \"#utility.yul\":2911:3856   */\n    tag_8:\n        /* \"#utility.yul\":3007:3013   */\n      0x00\n        /* \"#utility.yul\":3015:3021   */\n      dup1\n        /* \"#utility.yul\":3023:3029   */\n      0x00\n        /* \"#utility.yul\":3031:3037   */\n      dup1\n        /* \"#utility.yul\":3080:3083   */\n      0x80\n        /* \"#utility.yul\":3068:3077   */\n      dup6\n        /* \"#utility.yul\":3059:3066   */\n      dup8\n        /* \"#utility.yul\":3055:3078   */\n      sub\n        /* \"#utility.yul\":3051:3084   */\n      slt\n        /* \"#utility.yul\":3048:3168   */\n      iszero\n      tag_145\n      jumpi\n        /* \"#utility.yul\":3087:3166   */\n      tag_146\n      tag_52\n      jump\t// in\n    tag_146:\n        /* \"#utility.yul\":3048:3168   */\n    tag_145:\n        /* \"#utility.yul\":3207:3208   */\n      0x00\n        /* \"#utility.yul\":3232:3285   */\n      tag_147\n        /* \"#utility.yul\":3277:3284   */\n      dup8\n        /* \"#utility.yul\":3268:3274   */\n      dup3\n        /* \"#utility.yul\":3257:3266   */\n      dup9\n        /* \"#utility.yul\":3253:3275   */\n      add\n        /* \"#utility.yul\":3232:3285   */\n      tag_56\n      jump\t// in\n    tag_147:\n        /* \"#utility.yul\":3222:3285   */\n      swap5\n      pop\n        /* \"#utility.yul\":3178:3295   */\n      pop\n        /* \"#utility.yul\":3362:3364   */\n      0x20\n        /* \"#utility.yul\":3351:3360   */\n      dup6\n        /* \"#utility.yul\":3347:3365   */\n      add\n        /* \"#utility.yul\":3334:3366   */\n      calldataload\n        /* \"#utility.yul\":3393:3411   */\n      0xffffffffffffffff\n        /* \"#utility.yul\":3385:3391   */\n      dup2\n        /* \"#utility.yul\":3382:3412   */\n      gt\n        /* \"#utility.yul\":3379:3496   */\n      iszero\n      tag_148\n      jumpi\n        /* \"#utility.yul\":3415:3494   */\n      tag_149\n      tag_53\n      jump\t// in\n    tag_149:\n        /* \"#utility.yul\":3379:3496   */\n    tag_148:\n        /* \"#utility.yul\":3520:3583   */\n      tag_150\n        /* \"#utility.yul\":3575:3582   */\n      dup8\n        /* \"#utility.yul\":3566:3572   */\n      dup3\n        /* \"#utility.yul\":3555:3564   */\n      dup9\n        /* \"#utility.yul\":3551:3573   */\n      add\n        /* \"#utility.yul\":3520:3583   */\n      tag_66\n      jump\t// in\n    tag_150:\n        /* \"#utility.yul\":3510:3583   */\n      swap4\n      pop\n        /* \"#utility.yul\":3305:3593   */\n      pop\n        /* \"#utility.yul\":3632:3634   */\n      0x40\n        /* \"#utility.yul\":3658:3711   */\n      tag_151\n        /* \"#utility.yul\":3703:3710   */\n      dup8\n        /* \"#utility.yul\":3694:3700   */\n      dup3\n        /* \"#utility.yul\":3683:3692   */\n      dup9\n        /* \"#utility.yul\":3679:3701   */\n      add\n        /* \"#utility.yul\":3658:3711   */\n      tag_56\n      jump\t// in\n    tag_151:\n        /* \"#utility.yul\":3648:3711   */\n      swap3\n      pop\n        /* \"#utility.yul\":3603:3721   */\n      pop\n        /* \"#utility.yul\":3760:3762   */\n      0x60\n        /* \"#utility.yul\":3786:3839   */\n      tag_152\n        /* \"#utility.yul\":3831:3838   */\n      dup8\n        /* \"#utility.yul\":3822:3828   */\n      dup3\n        /* \"#utility.yul\":3811:3820   */\n      dup9\n        /* \"#utility.yul\":3807:3829   */\n      add\n        /* \"#utility.yul\":3786:3839   */\n      tag_56\n      jump\t// in\n    tag_152:\n        /* \"#utility.yul\":3776:3839   */\n      swap2\n      pop\n        /* \"#utility.yul\":3731:3849   */\n      pop\n        /* \"#utility.yul\":2911:3856   */\n      swap3\n      swap6\n      swap2\n      swap5\n      pop\n      swap3\n      pop\n      jump\t// out\n        /* \"#utility.yul\":3862:4191   */\n    tag_13:\n        /* \"#utility.yul\":3921:3927   */\n      0x00\n        /* \"#utility.yul\":3970:3972   */\n      0x20\n        /* \"#utility.yul\":3958:3967   */\n      dup3\n        /* \"#utility.yul\":3949:3956   */\n      dup5\n        /* \"#utility.yul\":3945:3968   */\n      sub\n        /* \"#utility.yul\":3941:3973   */\n      slt\n        /* \"#utility.yul\":3938:4057   */\n      iszero\n      tag_154\n      jumpi\n        /* \"#utility.yul\":3976:4055   */\n      tag_155\n      tag_52\n      jump\t// in\n    tag_155:\n        /* \"#utility.yul\":3938:4057   */\n    tag_154:\n        /* \"#utility.yul\":4096:4097   */\n      0x00\n        /* \"#utility.yul\":4121:4174   */\n      tag_156\n        /* \"#utility.yul\":4166:4173   */\n      dup5\n        /* \"#utility.yul\":4157:4163   */\n      dup3\n        /* \"#utility.yul\":4146:4155   */\n      dup6\n        /* \"#utility.yul\":4142:4164   */\n      add\n        /* \"#utility.yul\":4121:4174   */\n      tag_56\n      jump\t// in\n    tag_156:\n        /* \"#utility.yul\":4111:4174   */\n      swap2\n      pop\n        /* \"#utility.yul\":4067:4184   */\n      pop\n        /* \"#utility.yul\":3862:4191   */\n      swap3\n      swap2\n      pop\n      pop\n      jump\t// out\n        /* \"#utility.yul\":4197:4296   */\n    tag_67:\n        /* \"#utility.yul\":4249:4255   */\n      0x00\n        /* \"#utility.yul\":4283:4288   */\n      dup2\n        /* \"#utility.yul\":4277:4289   */\n      mload\n        /* \"#utility.yul\":4267:4289   */\n      swap1\n      pop\n        /* \"#utility.yul\":4197:4296   */\n      swap2\n      swap1\n      pop\n      jump\t// out\n        /* \"#utility.yul\":4302:4461   */\n    tag_68:\n        /* \"#utility.yul\":4376:4387   */\n      0x00\n        /* \"#utility.yul\":4410:4416   */\n      dup3\n        /* \"#utility.yul\":4405:4408   */\n      dup3\n        /* \"#utility.yul\":4398:4417   */\n      mstore\n        /* \"#utility.yul\":4450:4454   */\n      0x20\n        /* \"#utility.yul\":4445:4448   */\n      dup3\n        /* \"#utility.yul\":4441:4455   */\n      add\n        /* \"#utility.yul\":4426:4455   */\n      swap1\n      pop\n        /* \"#utility.yul\":4302:4461   */\n      swap3\n      swap2\n      pop\n      pop\n      jump\t// out\n        /* \"#utility.yul\":4467:4606   */\n    tag_69:\n        /* \"#utility.yul\":4556:4562   */\n      dup3\n        /* \"#utility.yul\":4551:4554   */\n      dup2\n        /* \"#utility.yul\":4546:4549   */\n      dup4\n        /* \"#utility.yul\":4540:4563   */\n      mcopy\n        /* \"#utility.yul\":4597:4598   */\n      0x00\n        /* \"#utility.yul\":4588:4594   */\n      dup4\n        /* \"#utility.yul\":4583:4586   */\n      dup4\n        /* \"#utility.yul\":4579:4595   */\n      add\n        /* \"#utility.yul\":4572:4599   */\n      mstore\n        /* \"#utility.yul\":4467:4606   */\n      pop\n      pop\n      pop\n      jump\t// out\n        /* \"#utility.yul\":4612:4969   */\n    tag_70:\n        /* \"#utility.yul\":4690:4693   */\n      0x00\n        /* \"#utility.yul\":4718:4757   */\n      tag_161\n        /* \"#utility.yul\":4751:4756   */\n      dup3\n        /* \"#utility.yul\":4718:4757   */\n      tag_67\n      jump\t// in\n    tag_161:\n        /* \"#utility.yul\":4773:4834   */\n      tag_162\n        /* \"#utility.yul\":4827:4833   */\n      dup2\n        /* \"#utility.yul\":4822:4825   */\n      dup6\n        /* \"#utility.yul\":4773:4834   */\n      tag_68\n      jump\t// in\n    tag_162:\n        /* \"#utility.yul\":4766:4834   */\n      swap4\n      pop\n        /* \"#utility.yul\":4843:4908   */\n      tag_163\n        /* \"#utility.yul\":4901:4907   */\n      dup2\n        /* \"#utility.yul\":4896:4899   */\n      dup6\n        /* \"#utility.yul\":4889:4893   */\n      0x20\n        /* \"#utility.yul\":4882:4887   */\n      dup7\n        /* \"#utility.yul\":4878:4894   */\n      add\n        /* \"#utility.yul\":4843:4908   */\n      tag_69\n      jump\t// in\n    tag_163:\n        /* \"#utility.yul\":4933:4962   */\n      tag_164\n        /* \"#utility.yul\":4955:4961   */\n      dup2\n        /* \"#utility.yul\":4933:4962   */\n      tag_59\n      jump\t// in\n    tag_164:\n        /* \"#utility.yul\":4928:4931   */\n      dup5\n        /* \"#utility.yul\":4924:4963   */\n      add\n        /* \"#utility.yul\":4917:4963   */\n      swap2\n      pop\n        /* \"#utility.yul\":4694:4969   */\n      pop\n        /* \"#utility.yul\":4612:4969   */\n      swap3\n      swap2\n      pop\n      pop\n      jump\t// out\n        /* \"#utility.yul\":4975:5083   */\n    tag_71:\n        /* \"#utility.yul\":5052:5076   */\n      tag_166\n        /* \"#utility.yul\":5070:5075   */\n      dup2\n        /* \"#utility.yul\":5052:5076   */\n      tag_54\n      jump\t// in\n    tag_166:\n        /* \"#utility.yul\":5047:5050   */\n      dup3\n        /* \"#utility.yul\":5040:5077   */\n      mstore\n        /* \"#utility.yul\":4975:5083   */\n      pop\n      pop\n      jump\t// out\n        /* \"#utility.yul\":5089:5179   */\n    tag_72:\n        /* \"#utility.yul\":5123:5130   */\n      0x00\n        /* \"#utility.yul\":5166:5171   */\n      dup2\n        /* \"#utility.yul\":5159:5172   */\n      iszero\n        /* \"#utility.yul\":5152:5173   */\n      iszero\n        /* \"#utility.yul\":5141:5173   */\n      swap1\n      pop\n        /* \"#utility.yul\":5089:5179   */\n      swap2\n      swap1\n      pop\n      jump\t// out\n        /* \"#utility.yul\":5185:5284   */\n    tag_73:\n        /* \"#utility.yul\":5256:5277   */\n      tag_169\n        /* \"#utility.yul\":5271:5276   */\n      dup2\n        /* \"#utility.yul\":5256:5277   */\n      tag_72\n      jump\t// in\n    tag_169:\n        /* \"#utility.yul\":5251:5254   */\n      dup3\n        /* \"#utility.yul\":5244:5278   */\n      mstore\n        /* \"#utility.yul\":5185:5284   */\n      pop\n      pop\n      jump\t// out\n        /* \"#utility.yul\":5352:6298   */\n    tag_74:\n        /* \"#utility.yul\":5463:5466   */\n      0x00\n        /* \"#utility.yul\":5499:5503   */\n      0x80\n        /* \"#utility.yul\":5494:5497   */\n      dup4\n        /* \"#utility.yul\":5490:5504   */\n      add\n        /* \"#utility.yul\":5587:5591   */\n      0x00\n        /* \"#utility.yul\":5580:5585   */\n      dup4\n        /* \"#utility.yul\":5576:5592   */\n      add\n        /* \"#utility.yul\":5570:5593   */\n      mload\n        /* \"#utility.yul\":5640:5643   */\n      dup5\n        /* \"#utility.yul\":5634:5638   */\n      dup3\n        /* \"#utility.yul\":5630:5644   */\n      sub\n        /* \"#utility.yul\":5623:5627   */\n      0x00\n        /* \"#utility.yul\":5618:5621   */\n      dup7\n        /* \"#utility.yul\":5614:5628   */\n      add\n        /* \"#utility.yul\":5607:5645   */\n      mstore\n        /* \"#utility.yul\":5666:5739   */\n      tag_171\n        /* \"#utility.yul\":5734:5738   */\n      dup3\n        /* \"#utility.yul\":5720:5732   */\n      dup3\n        /* \"#utility.yul\":5666:5739   */\n      tag_70\n      jump\t// in\n    tag_171:\n        /* \"#utility.yul\":5658:5739   */\n      swap2\n      pop\n        /* \"#utility.yul\":5514:5750   */\n      pop\n        /* \"#utility.yul\":5833:5837   */\n      0x20\n        /* \"#utility.yul\":5826:5831   */\n      dup4\n        /* \"#utility.yul\":5822:5838   */\n      add\n        /* \"#utility.yul\":5816:5839   */\n      mload\n        /* \"#utility.yul\":5852:5915   */\n      tag_172\n        /* \"#utility.yul\":5909:5913   */\n      0x20\n        /* \"#utility.yul\":5904:5907   */\n      dup7\n        /* \"#utility.yul\":5900:5914   */\n      add\n        /* \"#utility.yul\":5886:5898   */\n      dup3\n        /* \"#utility.yul\":5852:5915   */\n      tag_71\n      jump\t// in\n    tag_172:\n        /* \"#utility.yul\":5760:5925   */\n      pop\n        /* \"#utility.yul\":6008:6012   */\n      0x40\n        /* \"#utility.yul\":6001:6006   */\n      dup4\n        /* \"#utility.yul\":5997:6013   */\n      add\n        /* \"#utility.yul\":5991:6014   */\n      mload\n        /* \"#utility.yul\":6027:6090   */\n      tag_173\n        /* \"#utility.yul\":6084:6088   */\n      0x40\n        /* \"#utility.yul\":6079:6082   */\n      dup7\n        /* \"#utility.yul\":6075:6089   */\n      add\n        /* \"#utility.yul\":6061:6073   */\n      dup3\n        /* \"#utility.yul\":6027:6090   */\n      tag_71\n      jump\t// in\n    tag_173:\n        /* \"#utility.yul\":5935:6100   */\n      pop\n        /* \"#utility.yul\":6185:6189   */\n      0x60\n        /* \"#utility.yul\":6178:6183   */\n      dup4\n        /* \"#utility.yul\":6174:6190   */\n      add\n        /* \"#utility.yul\":6168:6191   */\n      mload\n        /* \"#utility.yul\":6204:6261   */\n      tag_174\n        /* \"#utility.yul\":6255:6259   */\n      0x60\n        /* \"#utility.yul\":6250:6253   */\n      dup7\n        /* \"#utility.yul\":6246:6260   */\n      add\n        /* \"#utility.yul\":6232:6244   */\n      dup3\n        /* \"#utility.yul\":6204:6261   */\n      tag_73\n      jump\t// in\n    tag_174:\n        /* \"#utility.yul\":6110:6271   */\n      pop\n        /* \"#utility.yul\":6288:6292   */\n      dup1\n        /* \"#utility.yul\":6281:6292   */\n      swap2\n      pop\n        /* \"#utility.yul\":5468:6298   */\n      pop\n        /* \"#utility.yul\":5352:6298   */\n      swap3\n      swap2\n      pop\n      pop\n      jump\t// out\n        /* \"#utility.yul\":6304:6661   */\n    tag_16:\n        /* \"#utility.yul\":6439:6443   */\n      0x00\n        /* \"#utility.yul\":6477:6479   */\n      0x20\n        /* \"#utility.yul\":6466:6475   */\n      dup3\n        /* \"#utility.yul\":6462:6480   */\n      add\n        /* \"#utility.yul\":6454:6480   */\n      swap1\n      pop\n        /* \"#utility.yul\":6526:6535   */\n      dup2\n        /* \"#utility.yul\":6520:6524   */\n      dup2\n        /* \"#utility.yul\":6516:6536   */\n      sub\n        /* \"#utility.yul\":6512:6513   */\n      0x00\n        /* \"#utility.yul\":6501:6510   */\n      dup4\n        /* \"#utility.yul\":6497:6514   */\n      add\n        /* \"#utility.yul\":6490:6537   */\n      mstore\n        /* \"#utility.yul\":6554:6654   */\n      tag_176\n        /* \"#utility.yul\":6649:6653   */\n      dup2\n        /* \"#utility.yul\":6640:6646   */\n      dup5\n        /* \"#utility.yul\":6554:6654   */\n      tag_74\n      jump\t// in\n    tag_176:\n        /* \"#utility.yul\":6546:6654   */\n      swap1\n      pop\n        /* \"#utility.yul\":6304:6661   */\n      swap3\n      swap2\n      pop\n      pop\n      jump\t// out\n        /* \"#utility.yul\":6667:6793   */\n    tag_75:\n        /* \"#utility.yul\":6704:6711   */\n      0x00\n        /* \"#utility.yul\":6744:6786   */\n      0xffffffffffffffffffffffffffffffffffffffff\n        /* \"#utility.yul\":6737:6742   */\n      dup3\n        /* \"#utility.yul\":6733:6787   */\n      and\n        /* \"#utility.yul\":6722:6787   */\n      swap1\n      pop\n        /* \"#utility.yul\":6667:6793   */\n      swap2\n      swap1\n      pop\n      jump\t// out\n        /* \"#utility.yul\":6799:6895   */\n    tag_76:\n        /* \"#utility.yul\":6836:6843   */\n      0x00\n        /* \"#utility.yul\":6865:6889   */\n      tag_179\n        /* \"#utility.yul\":6883:6888   */\n      dup3\n        /* \"#utility.yul\":6865:6889   */\n      tag_75\n      jump\t// in\n    tag_179:\n        /* \"#utility.yul\":6854:6889   */\n      swap1\n      pop\n        /* \"#utility.yul\":6799:6895   */\n      swap2\n      swap1\n      pop\n      jump\t// out\n        /* \"#utility.yul\":6901:7019   */\n    tag_77:\n        /* \"#utility.yul\":6988:7012   */\n      tag_181\n        /* \"#utility.yul\":7006:7011   */\n      dup2\n        /* \"#utility.yul\":6988:7012   */\n      tag_76\n      jump\t// in\n    tag_181:\n        /* \"#utility.yul\":6983:6986   */\n      dup3\n        /* \"#utility.yul\":6976:7013   */\n      mstore\n        /* \"#utility.yul\":6901:7019   */\n      pop\n      pop\n      jump\t// out\n        /* \"#utility.yul\":7025:7247   */\n    tag_21:\n        /* \"#utility.yul\":7118:7122   */\n      0x00\n        /* \"#utility.yul\":7156:7158   */\n      0x20\n        /* \"#utility.yul\":7145:7154   */\n      dup3\n        /* \"#utility.yul\":7141:7159   */\n      add\n        /* \"#utility.yul\":7133:7159   */\n      swap1\n      pop\n        /* \"#utility.yul\":7169:7240   */\n      tag_183\n        /* \"#utility.yul\":7237:7238   */\n      0x00\n        /* \"#utility.yul\":7226:7235   */\n      dup4\n        /* \"#utility.yul\":7222:7239   */\n      add\n        /* \"#utility.yul\":7213:7219   */\n      dup5\n        /* \"#utility.yul\":7169:7240   */\n      tag_77\n      jump\t// in\n    tag_183:\n        /* \"#utility.yul\":7025:7247   */\n      swap3\n      swap2\n      pop\n      pop\n      jump\t// out\n        /* \"#utility.yul\":7253:7370   */\n    tag_78:\n        /* \"#utility.yul\":7362:7363   */\n      0x00\n        /* \"#utility.yul\":7359:7360   */\n      dup1\n        /* \"#utility.yul\":7352:7364   */\n      revert\n        /* \"#utility.yul\":7376:7493   */\n    tag_79:\n        /* \"#utility.yul\":7485:7486   */\n      0x00\n        /* \"#utility.yul\":7482:7483   */\n      dup1\n        /* \"#utility.yul\":7475:7487   */\n      revert\n        /* \"#utility.yul\":7499:7615   */\n    tag_80:\n        /* \"#utility.yul\":7569:7590   */\n      tag_187\n        /* \"#utility.yul\":7584:7589   */\n      dup2\n        /* \"#utility.yul\":7569:7590   */\n      tag_72\n      jump\t// in\n    tag_187:\n        /* \"#utility.yul\":7562:7567   */\n      dup2\n        /* \"#utility.yul\":7559:7591   */\n      eq\n        /* \"#utility.yul\":7549:7609   */\n      tag_188\n      jumpi\n        /* \"#utility.yul\":7605:7606   */\n      0x00\n        /* \"#utility.yul\":7602:7603   */\n      dup1\n        /* \"#utility.yul\":7595:7607   */\n      revert\n        /* \"#utility.yul\":7549:7609   */\n    tag_188:\n        /* \"#utility.yul\":7499:7615   */\n      pop\n      jump\t// out\n        /* \"#utility.yul\":7621:7754   */\n    tag_81:\n        /* \"#utility.yul\":7664:7669   */\n      0x00\n        /* \"#utility.yul\":7702:7708   */\n      dup2\n        /* \"#utility.yul\":7689:7709   */\n      calldataload\n        /* \"#utility.yul\":7680:7709   */\n      swap1\n      pop\n        /* \"#utility.yul\":7718:7748   */\n      tag_190\n        /* \"#utility.yul\":7742:7747   */\n      dup2\n        /* \"#utility.yul\":7718:7748   */\n      tag_80\n      jump\t// in\n    tag_190:\n        /* \"#utility.yul\":7621:7754   */\n      swap3\n      swap2\n      pop\n      pop\n      jump\t// out\n        /* \"#utility.yul\":7793:8858   */\n    tag_82:\n        /* \"#utility.yul\":7863:7868   */\n      0x00\n        /* \"#utility.yul\":7907:7911   */\n      0x80\n        /* \"#utility.yul\":7895:7904   */\n      dup3\n        /* \"#utility.yul\":7890:7893   */\n      dup5\n        /* \"#utility.yul\":7886:7905   */\n      sub\n        /* \"#utility.yul\":7882:7912   */\n      slt\n        /* \"#utility.yul\":7879:7996   */\n      iszero\n      tag_192\n      jumpi\n        /* \"#utility.yul\":7915:7994   */\n      tag_193\n      tag_78\n      jump\t// in\n    tag_193:\n        /* \"#utility.yul\":7879:7996   */\n    tag_192:\n        /* \"#utility.yul\":8014:8035   */\n      tag_194\n        /* \"#utility.yul\":8030:8034   */\n      0x80\n        /* \"#utility.yul\":8014:8035   */\n      tag_62\n      jump\t// in\n    tag_194:\n        /* \"#utility.yul\":8005:8035   */\n      swap1\n      pop\n        /* \"#utility.yul\":8123:8124   */\n      0x00\n        /* \"#utility.yul\":8112:8121   */\n      dup3\n        /* \"#utility.yul\":8108:8125   */\n      add\n        /* \"#utility.yul\":8095:8126   */\n      calldataload\n        /* \"#utility.yul\":8153:8171   */\n      0xffffffffffffffff\n        /* \"#utility.yul\":8145:8151   */\n      dup2\n        /* \"#utility.yul\":8142:8172   */\n      gt\n        /* \"#utility.yul\":8139:8256   */\n      iszero\n      tag_195\n      jumpi\n        /* \"#utility.yul\":8175:8254   */\n      tag_196\n      tag_79\n      jump\t// in\n    tag_196:\n        /* \"#utility.yul\":8139:8256   */\n    tag_195:\n        /* \"#utility.yul\":8295:8354   */\n      tag_197\n        /* \"#utility.yul\":8350:8353   */\n      dup5\n        /* \"#utility.yul\":8341:8347   */\n      dup3\n        /* \"#utility.yul\":8330:8339   */\n      dup6\n        /* \"#utility.yul\":8326:8348   */\n      add\n        /* \"#utility.yul\":8295:8354   */\n      tag_66\n      jump\t// in\n    tag_197:\n        /* \"#utility.yul\":8288:8292   */\n      0x00\n        /* \"#utility.yul\":8281:8286   */\n      dup4\n        /* \"#utility.yul\":8277:8293   */\n      add\n        /* \"#utility.yul\":8270:8355   */\n      mstore\n        /* \"#utility.yul\":8045:8366   */\n      pop\n        /* \"#utility.yul\":8426:8428   */\n      0x20\n        /* \"#utility.yul\":8467:8516   */\n      tag_198\n        /* \"#utility.yul\":8512:8515   */\n      dup5\n        /* \"#utility.yul\":8503:8509   */\n      dup3\n        /* \"#utility.yul\":8492:8501   */\n      dup6\n        /* \"#utility.yul\":8488:8510   */\n      add\n        /* \"#utility.yul\":8467:8516   */\n      tag_56\n      jump\t// in\n    tag_198:\n        /* \"#utility.yul\":8460:8464   */\n      0x20\n        /* \"#utility.yul\":8453:8458   */\n      dup4\n        /* \"#utility.yul\":8449:8465   */\n      add\n        /* \"#utility.yul\":8442:8517   */\n      mstore\n        /* \"#utility.yul\":8376:8528   */\n      pop\n        /* \"#utility.yul\":8588:8590   */\n      0x40\n        /* \"#utility.yul\":8629:8678   */\n      tag_199\n        /* \"#utility.yul\":8674:8677   */\n      dup5\n        /* \"#utility.yul\":8665:8671   */\n      dup3\n        /* \"#utility.yul\":8654:8663   */\n      dup6\n        /* \"#utility.yul\":8650:8672   */\n      add\n        /* \"#utility.yul\":8629:8678   */\n      tag_56\n      jump\t// in\n    tag_199:\n        /* \"#utility.yul\":8622:8626   */\n      0x40\n        /* \"#utility.yul\":8615:8620   */\n      dup4\n        /* \"#utility.yul\":8611:8627   */\n      add\n        /* \"#utility.yul\":8604:8679   */\n      mstore\n        /* \"#utility.yul\":8538:8690   */\n      pop\n        /* \"#utility.yul\":8752:8754   */\n      0x60\n        /* \"#utility.yul\":8793:8839   */\n      tag_200\n        /* \"#utility.yul\":8835:8838   */\n      dup5\n        /* \"#utility.yul\":8826:8832   */\n      dup3\n        /* \"#utility.yul\":8815:8824   */\n      dup6\n        /* \"#utility.yul\":8811:8833   */\n      add\n        /* \"#utility.yul\":8793:8839   */\n      tag_81\n      jump\t// in\n    tag_200:\n        /* \"#utility.yul\":8786:8790   */\n      0x60\n        /* \"#utility.yul\":8779:8784   */\n      dup4\n        /* \"#utility.yul\":8775:8791   */\n      add\n        /* \"#utility.yul\":8768:8840   */\n      mstore\n        /* \"#utility.yul\":8700:8851   */\n      pop\n        /* \"#utility.yul\":7793:8858   */\n      swap3\n      swap2\n      pop\n      pop\n      jump\t// out\n        /* \"#utility.yul\":8864:9540   */\n    tag_24:\n        /* \"#utility.yul\":8953:8959   */\n      0x00\n        /* \"#utility.yul\":8961:8967   */\n      dup1\n        /* \"#utility.yul\":9010:9012   */\n      0x40\n        /* \"#utility.yul\":8998:9007   */\n      dup4\n        /* \"#utility.yul\":8989:8996   */\n      dup6\n        /* \"#utility.yul\":8985:9008   */\n      sub\n        /* \"#utility.yul\":8981:9013   */\n      slt\n        /* \"#utility.yul\":8978:9097   */\n      iszero\n      tag_202\n      jumpi\n        /* \"#utility.yul\":9016:9095   */\n      tag_203\n      tag_52\n      jump\t// in\n    tag_203:\n        /* \"#utility.yul\":8978:9097   */\n    tag_202:\n        /* \"#utility.yul\":9136:9137   */\n      0x00\n        /* \"#utility.yul\":9161:9214   */\n      tag_204\n        /* \"#utility.yul\":9206:9213   */\n      dup6\n        /* \"#utility.yul\":9197:9203   */\n      dup3\n        /* \"#utility.yul\":9186:9195   */\n      dup7\n        /* \"#utility.yul\":9182:9204   */\n      add\n        /* \"#utility.yul\":9161:9214   */\n      tag_56\n      jump\t// in\n    tag_204:\n        /* \"#utility.yul\":9151:9214   */\n      swap3\n      pop\n        /* \"#utility.yul\":9107:9224   */\n      pop\n        /* \"#utility.yul\":9291:9293   */\n      0x20\n        /* \"#utility.yul\":9280:9289   */\n      dup4\n        /* \"#utility.yul\":9276:9294   */\n      add\n        /* \"#utility.yul\":9263:9295   */\n      calldataload\n        /* \"#utility.yul\":9322:9340   */\n      0xffffffffffffffff\n        /* \"#utility.yul\":9314:9320   */\n      dup2\n        /* \"#utility.yul\":9311:9341   */\n      gt\n        /* \"#utility.yul\":9308:9425   */\n      iszero\n      tag_205\n      jumpi\n        /* \"#utility.yul\":9344:9423   */\n      tag_206\n      tag_53\n      jump\t// in\n    tag_206:\n        /* \"#utility.yul\":9308:9425   */\n    tag_205:\n        /* \"#utility.yul\":9449:9523   */\n      tag_207\n        /* \"#utility.yul\":9515:9522   */\n      dup6\n        /* \"#utility.yul\":9506:9512   */\n      dup3\n        /* \"#utility.yul\":9495:9504   */\n      dup7\n        /* \"#utility.yul\":9491:9513   */\n      add\n        /* \"#utility.yul\":9449:9523   */\n      tag_82\n      jump\t// in\n    tag_207:\n        /* \"#utility.yul\":9439:9523   */\n      swap2\n      pop\n        /* \"#utility.yul\":9234:9533   */\n      pop\n        /* \"#utility.yul\":8864:9540   */\n      swap3\n      pop\n      swap3\n      swap1\n      pop\n      jump\t// out\n        /* \"#utility.yul\":9546:9726   */\n    tag_83:\n        /* \"#utility.yul\":9594:9671   */\n      0x4e487b7100000000000000000000000000000000000000000000000000000000\n        /* \"#utility.yul\":9591:9592   */\n      0x00\n        /* \"#utility.yul\":9584:9672   */\n      mstore\n        /* \"#utility.yul\":9691:9695   */\n      0x22\n        /* \"#utility.yul\":9688:9689   */\n      0x04\n        /* \"#utility.yul\":9681:9696   */\n      mstore\n        /* \"#utility.yul\":9715:9719   */\n      0x24\n        /* \"#utility.yul\":9712:9713   */\n      0x00\n        /* \"#utility.yul\":9705:9720   */\n      revert\n        /* \"#utility.yul\":9732:10052   */\n    tag_35:\n        /* \"#utility.yul\":9776:9782   */\n      0x00\n        /* \"#utility.yul\":9813:9814   */\n      0x02\n        /* \"#utility.yul\":9807:9811   */\n      dup3\n        /* \"#utility.yul\":9803:9815   */\n      div\n        /* \"#utility.yul\":9793:9815   */\n      swap1\n      pop\n        /* \"#utility.yul\":9860:9861   */\n      0x01\n        /* \"#utility.yul\":9854:9858   */\n      dup3\n        /* \"#utility.yul\":9850:9862   */\n      and\n        /* \"#utility.yul\":9881:9899   */\n      dup1\n        /* \"#utility.yul\":9871:9952   */\n      tag_210\n      jumpi\n        /* \"#utility.yul\":9937:9941   */\n      0x7f\n        /* \"#utility.yul\":9929:9935   */\n      dup3\n        /* \"#utility.yul\":9925:9942   */\n      and\n        /* \"#utility.yul\":9915:9942   */\n      swap2\n      pop\n        /* \"#utility.yul\":9871:9952   */\n    tag_210:\n        /* \"#utility.yul\":9999:10001   */\n      0x20\n        /* \"#utility.yul\":9991:9997   */\n      dup3\n        /* \"#utility.yul\":9988:10002   */\n      lt\n        /* \"#utility.yul\":9968:9986   */\n      dup2\n        /* \"#utility.yul\":9965:10003   */\n      sub\n        /* \"#utility.yul\":9962:10046   */\n      tag_211\n      jumpi\n        /* \"#utility.yul\":10018:10036   */\n      tag_212\n      tag_83\n      jump\t// in\n    tag_212:\n        /* \"#utility.yul\":9962:10046   */\n    tag_211:\n        /* \"#utility.yul\":9783:10052   */\n      pop\n        /* \"#utility.yul\":9732:10052   */\n      swap2\n      swap1\n      pop\n      jump\t// out\n        /* \"#utility.yul\":10058:10199   */\n    tag_84:\n        /* \"#utility.yul\":10107:10111   */\n      0x00\n        /* \"#utility.yul\":10130:10133   */\n      dup2\n        /* \"#utility.yul\":10122:10133   */\n      swap1\n      pop\n        /* \"#utility.yul\":10153:10156   */\n      dup2\n        /* \"#utility.yul\":10150:10151   */\n      0x00\n        /* \"#utility.yul\":10143:10157   */\n      mstore\n        /* \"#utility.yul\":10187:10191   */\n      0x20\n        /* \"#utility.yul\":10184:10185   */\n      0x00\n        /* \"#utility.yul\":10174:10192   */\n      keccak256\n        /* \"#utility.yul\":10166:10192   */\n      swap1\n      pop\n        /* \"#utility.yul\":10058:10199   */\n      swap2\n      swap1\n      pop\n      jump\t// out\n        /* \"#utility.yul\":10205:10298   */\n    tag_85:\n        /* \"#utility.yul\":10242:10248   */\n      0x00\n        /* \"#utility.yul\":10289:10291   */\n      0x20\n        /* \"#utility.yul\":10284:10286   */\n      0x1f\n        /* \"#utility.yul\":10277:10282   */\n      dup4\n        /* \"#utility.yul\":10273:10287   */\n      add\n        /* \"#utility.yul\":10269:10292   */\n      div\n        /* \"#utility.yul\":10259:10292   */\n      swap1\n      pop\n        /* \"#utility.yul\":10205:10298   */\n      swap2\n      swap1\n      pop\n      jump\t// out\n        /* \"#utility.yul\":10304:10411   */\n    tag_86:\n        /* \"#utility.yul\":10348:10356   */\n      0x00\n        /* \"#utility.yul\":10398:10403   */\n      dup3\n        /* \"#utility.yul\":10392:10396   */\n      dup3\n        /* \"#utility.yul\":10388:10404   */\n      shl\n        /* \"#utility.yul\":10367:10404   */\n      swap1\n      pop\n        /* \"#utility.yul\":10304:10411   */\n      swap3\n      swap2\n      pop\n      pop\n      jump\t// out\n        /* \"#utility.yul\":10417:10810   */\n    tag_87:\n        /* \"#utility.yul\":10486:10492   */\n      0x00\n        /* \"#utility.yul\":10536:10537   */\n      0x08\n        /* \"#utility.yul\":10524:10534   */\n      dup4\n        /* \"#utility.yul\":10520:10538   */\n      mul\n        /* \"#utility.yul\":10559:10656   */\n      tag_217\n        /* \"#utility.yul\":10589:10655   */\n      0xffffffffffffffffffffffffffffffffffffffffffffffffffffffffffffffff\n        /* \"#utility.yul\":10578:10587   */\n      dup3\n        /* \"#utility.yul\":10559:10656   */\n      tag_86\n      jump\t// in\n    tag_217:\n        /* \"#utility.yul\":10677:10716   */\n      tag_218\n        /* \"#utility.yul\":10707:10715   */\n      dup7\n        /* \"#utility.yul\":10696:10705   */\n      dup4\n        /* \"#utility.yul\":10677:10716   */\n      tag_86\n      jump\t// in\n    tag_218:\n        /* \"#utility.yul\":10665:10716   */\n      swap6\n      pop\n        /* \"#utility.yul\":10749:10753   */\n      dup1\n        /* \"#utility.yul\":10745:10754   */\n      not\n        /* \"#utility.yul\":10738:10743   */\n      dup5\n        /* \"#utility.yul\":10734:10755   */\n      and\n        /* \"#utility.yul\":10725:10755   */\n      swap4\n      pop\n        /* \"#utility.yul\":10798:10802   */\n      dup1\n        /* \"#utility.yul\":10788:10796   */\n      dup7\n        /* \"#utility.yul\":10784:10803   */\n      and\n        /* \"#utility.yul\":10777:10782   */\n      dup5\n        /* \"#utility.yul\":10774:10804   */\n      or\n        /* \"#utility.yul\":10764:10804   */\n      swap3\n      pop\n        /* \"#utility.yul\":10493:10810   */\n      pop\n      pop\n        /* \"#utility.yul\":10417:10810   */\n      swap4\n      swap3\n      pop\n      pop\n      pop\n      jump\t// out\n        /* \"#utility.yul\":10816:10876   */\n    tag_88:\n        /* \"#utility.yul\":10844:10847   */\n      0x00\n        /* \"#utility.yul\":10865:10870   */\n      dup2\n        /* \"#utility.yul\":10858:10870   */\n      swap1\n      pop\n        /* \"#utility.yul\":10816:10876   */\n      swap2\n      swap1\n      pop\n      jump\t// out\n        /* \"#utility.yul\":10882:11024   */\n    tag_89:\n        /* \"#utility.yul\":10932:10941   */\n      0x00\n        /* \"#utility.yul\":10965:11018   */\n      tag_221\n        /* \"#utility.yul\":10983:11017   */\n      tag_222\n        /* \"#utility.yul\":10992:11016   */\n      tag_223\n        /* \"#utility.yul\":11010:11015   */\n      dup5\n        /* \"#utility.yul\":10992:11016   */\n      tag_54\n      jump\t// in\n    tag_223:\n        /* \"#utility.yul\":10983:11017   */\n      tag_88\n      jump\t// in\n    tag_222:\n        /* \"#utility.yul\":10965:11018   */\n      tag_54\n      jump\t// in\n    tag_221:\n        /* \"#utility.yul\":10952:11018   */\n      swap1\n      pop\n        /* \"#utility.yul\":10882:11024   */\n      swap2\n      swap1\n      pop\n      jump\t// out\n        /* \"#utility.yul\":11030:11105   */\n    tag_90:\n        /* \"#utility.yul\":11073:11076   */\n      0x00\n        /* \"#utility.yul\":11094:11099   */\n      dup2\n        /* \"#utility.yul\":11087:11099   */\n      swap1\n      pop\n        /* \"#utility.yul\":11030:11105   */\n      swap2\n      swap1\n      pop\n      jump\t// out\n        /* \"#utility.yul\":11111:11380   */\n    tag_91:\n        /* \"#utility.yul\":11221:11260   */\n      tag_226\n        /* \"#utility.yul\":11252:11259   */\n      dup4\n        /* \"#utility.yul\":11221:11260   */\n      tag_89\n      jump\t// in\n    tag_226:\n        /* \"#utility.yul\":11282:11373   */\n      tag_227\n        /* \"#utility.yul\":11331:11372   */\n      tag_228\n        /* \"#utility.yul\":11355:11371   */\n      dup3\n        /* \"#utility.yul\":11331:11372   */\n      tag_90\n      jump\t// in\n    tag_228:\n        /* \"#utility.yul\":11323:11329   */\n      dup5\n        /* \"#utility.yul\":11316:11320   */\n      dup5\n        /* \"#utility.yul\":11310:11321   */\n      sload\n        /* \"#utility.yul\":11282:11373   */\n      tag_87\n      jump\t// in\n    tag_227:\n        /* \"#utility.yul\":11276:11280   */\n      dup3\n        /* \"#utility.yul\":11269:11374   */\n      sstore\n        /* \"#utility.yul\":11187:11380   */\n      pop\n        /* \"#utility.yul\":11111:11380   */\n      pop\n      pop\n      pop\n      jump\t// out\n        /* \"#utility.yul\":11386:11459   */\n    tag_92:\n        /* \"#utility.yul\":11431:11434   */\n      0x00\n        /* \"#utility.yul\":11386:11459   */\n      swap1\n      jump\t// out\n        /* \"#utility.yul\":11465:11654   */\n    tag_93:\n        /* \"#utility.yul\":11542:11574   */\n      tag_231\n      tag_92\n      jump\t// in\n    tag_231:\n        /* \"#utility.yul\":11583:11648   */\n      tag_232\n        /* \"#utility.yul\":11641:11647   */\n      dup2\n        /* \"#utility.yul\":11633:11639   */\n      dup5\n        /* \"#utility.yul\":11627:11631   */\n      dup5\n        /* \"#utility.yul\":11583:11648   */\n      tag_91\n      jump\t// in\n    tag_232:\n        /* \"#utility.yul\":11518:11654   */\n      pop\n        /* \"#utility.yul\":11465:11654   */\n      pop\n      pop\n      jump\t// out\n        /* \"#utility.yul\":11660:11846   */\n    tag_94:\n        /* \"#utility.yul\":11720:11840   */\n    tag_234:\n        /* \"#utility.yul\":11737:11740   */\n      dup2\n        /* \"#utility.yul\":11730:11735   */\n      dup2\n        /* \"#utility.yul\":11727:11741   */\n      lt\n        /* \"#utility.yul\":11720:11840   */\n      iszero\n      tag_236\n      jumpi\n        /* \"#utility.yul\":11791:11830   */\n      tag_237\n        /* \"#utility.yul\":11828:11829   */\n      0x00\n        /* \"#utility.yul\":11821:11826   */\n      dup3\n        /* \"#utility.yul\":11791:11830   */\n      tag_93\n      jump\t// in\n    tag_237:\n        /* \"#utility.yul\":11764:11765   */\n      0x01\n        /* \"#utility.yul\":11757:11762   */\n      dup2\n        /* \"#utility.yul\":11753:11766   */\n      add\n        /* \"#utility.yul\":11744:11766   */\n      swap1\n      pop\n        /* \"#utility.yul\":11720:11840   */\n      jump(tag_234)\n    tag_236:\n        /* \"#utility.yul\":11660:11846   */\n      pop\n      pop\n      jump\t// out\n        /* \"#utility.yul\":11852:12395   */\n    tag_95:\n        /* \"#utility.yul\":11953:11955   */\n      0x1f\n        /* \"#utility.yul\":11948:11951   */\n      dup3\n        /* \"#utility.yul\":11945:11956   */\n      gt\n        /* \"#utility.yul\":11942:12388   */\n      iszero\n      tag_239\n      jumpi\n        /* \"#utility.yul\":11987:12025   */\n      tag_240\n        /* \"#utility.yul\":12019:12024   */\n      dup2\n        /* \"#utility.yul\":11987:12025   */\n      tag_84\n      jump\t// in\n    tag_240:\n        /* \"#utility.yul\":12071:12100   */\n      tag_241\n        /* \"#utility.yul\":12089:12099   */\n      dup5\n        /* \"#utility.yul\":12071:12100   */\n      tag_85\n      jump\t// in\n    tag_241:\n        /* \"#utility.yul\":12061:12069   */\n      dup2\n        /* \"#utility.yul\":12057:12101   */\n      add\n        /* \"#utility.yul\":12254:12256   */\n      0x20\n        /* \"#utility.yul\":12242:12252   */\n      dup6\n        /* \"#utility.yul\":12239:12257   */\n      lt\n        /* \"#utility.yul\":12236:12285   */\n      iszero\n      tag_242\n      jumpi\n        /* \"#utility.yul\":12275:12283   */\n      dup2\n        /* \"#utility.yul\":12260:12283   */\n      swap1\n      pop\n        /* \"#utility.yul\":12236:12285   */\n    tag_242:\n        /* \"#utility.yul\":12298:12378   */\n      tag_243\n        /* \"#utility.yul\":12354:12376   */\n      tag_244\n        /* \"#utility.yul\":12372:12375   */\n      dup6\n        /* \"#utility.yul\":12354:12376   */\n      tag_85\n      jump\t// in\n    tag_244:\n        /* \"#utility.yul\":12344:12352   */\n      dup4\n        /* \"#utility.yul\":12340:12377   */\n      add\n        /* \"#utility.yul\":12327:12338   */\n      dup3\n        /* \"#utility.yul\":12298:12378   */\n      tag_94\n      jump\t// in\n    tag_243:\n        /* \"#utility.yul\":11957:12388   */\n      pop\n      pop\n        /* \"#utility.yul\":11942:12388   */\n    tag_239:\n        /* \"#utility.yul\":11852:12395   */\n      pop\n      pop\n      pop\n      jump\t// out\n        /* \"#utility.yul\":12401:12518   */\n    tag_96:\n        /* \"#utility.yul\":12455:12463   */\n      0x00\n        /* \"#utility.yul\":12505:12510   */\n      dup3\n        /* \"#utility.yul\":12499:12503   */\n      dup3\n        /* \"#utility.yul\":12495:12511   */\n      shr\n        /* \"#utility.yul\":12474:12511   */\n      swap1\n      pop\n        /* \"#utility.yul\":12401:12518   */\n      swap3\n      swap2\n      pop\n      pop\n      jump\t// out\n        /* \"#utility.yul\":12524:12693   */\n    tag_97:\n        /* \"#utility.yul\":12568:12574   */\n      0x00\n        /* \"#utility.yul\":12601:12652   */\n      tag_247\n        /* \"#utility.yul\":12649:12650   */\n      0x00\n        /* \"#utility.yul\":12645:12651   */\n      not\n        /* \"#utility.yul\":12637:12642   */\n      dup5\n        /* \"#utility.yul\":12634:12635   */\n      0x08\n        /* \"#utility.yul\":12630:12643   */\n      mul\n        /* \"#utility.yul\":12601:12652   */\n      tag_96\n      jump\t// in\n    tag_247:\n        /* \"#utility.yul\":12597:12653   */\n      not\n        /* \"#utility.yul\":12682:12686   */\n      dup1\n        /* \"#utility.yul\":12676:12680   */\n      dup4\n        /* \"#utility.yul\":12672:12687   */\n      and\n        /* \"#utility.yul\":12662:12687   */\n      swap2\n      pop\n        /* \"#utility.yul\":12575:12693   */\n      pop\n        /* \"#utility.yul\":12524:12693   */\n      swap3\n      swap2\n      pop\n      pop\n      jump\t// out\n        /* \"#utility.yul\":12698:12993   */\n    tag_98:\n        /* \"#utility.yul\":12774:12778   */\n      0x00\n        /* \"#utility.yul\":12920:12949   */\n      tag_249\n        /* \"#utility.yul\":12945:12948   */\n      dup4\n        /* \"#utility.yul\":12939:12943   */\n      dup4\n        /* \"#utility.yul\":12920:12949   */\n      tag_97\n      jump\t// in\n    tag_249:\n        /* \"#utility.yul\":12912:12949   */\n      swap2\n      pop\n        /* \"#utility.yul\":12982:12985   */\n      dup3\n        /* \"#utility.yul\":12979:12980   */\n      0x02\n        /* \"#utility.yul\":12975:12986   */\n      mul\n        /* \"#utility.yul\":12969:12973   */\n      dup3\n        /* \"#utility.yul\":12966:12987   */\n      or\n        /* \"#utility.yul\":12958:12987   */\n      swap1\n      pop\n        /* \"#utility.yul\":12698:12993   */\n      swap3\n      swap2\n      pop\n      pop\n      jump\t// out\n        /* \"#utility.yul\":12998:14393   */\n    tag_28:\n        /* \"#utility.yul\":13115:13152   */\n      tag_251\n        /* \"#utility.yul\":13148:13151   */\n      dup3\n        /* \"#utility.yul\":13115:13152   */\n      tag_67\n      jump\t// in\n    tag_251:\n        /* \"#utility.yul\":13217:13235   */\n      0xffffffffffffffff\n        /* \"#utility.yul\":13209:13215   */\n      dup2\n        /* \"#utility.yul\":13206:13236   */\n      gt\n        /* \"#utility.yul\":13203:13259   */\n      iszero\n      tag_252\n      jumpi\n        /* \"#utility.yul\":13239:13257   */\n      tag_253\n      tag_60\n      jump\t// in\n    tag_253:\n        /* \"#utility.yul\":13203:13259   */\n    tag_252:\n        /* \"#utility.yul\":13283:13321   */\n      tag_254\n        /* \"#utility.yul\":13315:13319   */\n      dup3\n        /* \"#utility.yul\":13309:13320   */\n      sload\n        /* \"#utility.yul\":13283:13321   */\n      tag_35\n      jump\t// in\n    tag_254:\n        /* \"#utility.yul\":13368:13435   */\n      tag_255\n        /* \"#utility.yul\":13428:13434   */\n      dup3\n        /* \"#utility.yul\":13420:13426   */\n      dup3\n        /* \"#utility.yul\":13414:13418   */\n      dup6\n        /* \"#utility.yul\":13368:13435   */\n      tag_95\n      jump\t// in\n    tag_255:\n        /* \"#utility.yul\":13462:13463   */\n      0x00\n        /* \"#utility.yul\":13486:13490   */\n      0x20\n        /* \"#utility.yul\":13473:13490   */\n      swap1\n      pop\n        /* \"#utility.yul\":13518:13520   */\n      0x1f\n        /* \"#utility.yul\":13510:13516   */\n      dup4\n        /* \"#utility.yul\":13507:13521   */\n      gt\n        /* \"#utility.yul\":13535:13536   */\n      0x01\n        /* \"#utility.yul\":13530:14148   */\n      dup2\n      eq\n      tag_257\n      jumpi\n        /* \"#utility.yul\":14192:14193   */\n      0x00\n        /* \"#utility.yul\":14209:14215   */\n      dup5\n        /* \"#utility.yul\":14206:14283   */\n      iszero\n      tag_258\n      jumpi\n        /* \"#utility.yul\":14258:14267   */\n      dup3\n        /* \"#utility.yul\":14253:14256   */\n      dup8\n        /* \"#utility.yul\":14249:14268   */\n      add\n        /* \"#utility.yul\":14243:14269   */\n      mload\n        /* \"#utility.yul\":14234:14269   */\n      swap1\n      pop\n        /* \"#utility.yul\":14206:14283   */\n    tag_258:\n        /* \"#utility.yul\":14309:14376   */\n      tag_259\n        /* \"#utility.yul\":14369:14375   */\n      dup6\n        /* \"#utility.yul\":14362:14367   */\n      dup3\n        /* \"#utility.yul\":14309:14376   */\n      tag_98\n      jump\t// in\n    tag_259:\n        /* \"#utility.yul\":14303:14307   */\n      dup7\n        /* \"#utility.yul\":14296:14377   */\n      sstore\n        /* \"#utility.yul\":14165:14387   */\n      pop\n        /* \"#utility.yul\":13500:14387   */\n      jump(tag_256)\n        /* \"#utility.yul\":13530:14148   */\n    tag_257:\n        /* \"#utility.yul\":13582:13586   */\n      0x1f\n        /* \"#utility.yul\":13578:13587   */\n      not\n        /* \"#utility.yul\":13570:13576   */\n      dup5\n        /* \"#utility.yul\":13566:13588   */\n      and\n        /* \"#utility.yul\":13616:13653   */\n      tag_260\n        /* \"#utility.yul\":13648:13652   */\n      dup7\n        /* \"#utility.yul\":13616:13653   */\n      tag_84\n      jump\t// in\n    tag_260:\n        /* \"#utility.yul\":13675:13676   */\n      0x00\n        /* \"#utility.yul\":13689:13897   */\n    tag_261:\n        /* \"#utility.yul\":13703:13710   */\n      dup3\n        /* \"#utility.yul\":13700:13701   */\n      dup2\n        /* \"#utility.yul\":13697:13711   */\n      lt\n        /* \"#utility.yul\":13689:13897   */\n      iszero\n      tag_263\n      jumpi\n        /* \"#utility.yul\":13782:13791   */\n      dup5\n        /* \"#utility.yul\":13777:13780   */\n      dup10\n        /* \"#utility.yul\":13773:13792   */\n      add\n        /* \"#utility.yul\":13767:13793   */\n      mload\n        /* \"#utility.yul\":13759:13765   */\n      dup3\n        /* \"#utility.yul\":13752:13794   */\n      sstore\n        /* \"#utility.yul\":13833:13834   */\n      0x01\n        /* \"#utility.yul\":13825:13831   */\n      dup3\n        /* \"#utility.yul\":13821:13835   */\n      add\n        /* \"#utility.yul\":13811:13835   */\n      swap2\n      pop\n        /* \"#utility.yul\":13880:13882   */\n      0x20\n        /* \"#utility.yul\":13869:13878   */\n      dup6\n        /* \"#utility.yul\":13865:13883   */\n      add\n        /* \"#utility.yul\":13852:13883   */\n      swap5\n      pop\n        /* \"#utility.yul\":13726:13730   */\n      0x20\n        /* \"#utility.yul\":13723:13724   */\n      dup2\n        /* \"#utility.yul\":13719:13731   */\n      add\n        /* \"#utility.yul\":13714:13731   */\n      swap1\n      pop\n        /* \"#utility.yul\":13689:13897   */\n      jump(tag_261)\n    tag_263:\n        /* \"#utility.yul\":13925:13931   */\n      dup7\n        /* \"#utility.yul\":13916:13923   */\n      dup4\n        /* \"#utility.yul\":13913:13932   */\n      lt\n        /* \"#utility.yul\":13910:14089   */\n      iszero\n      tag_264\n      jumpi\n        /* \"#utility.yul\":13983:13992   */\n      dup5\n        /* \"#utility.yul\":13978:13981   */\n      dup10\n        /* \"#utility.yul\":13974:13993   */\n      add\n        /* \"#utility.yul\":13968:13994   */\n      mload\n        /* \"#utility.yul\":14026:14074   */\n      tag_265\n        /* \"#utility.yul\":14068:14072   */\n      0x1f\n        /* \"#utility.yul\":14060:14066   */\n      dup10\n        /* \"#utility.yul\":14056:14073   */\n      and\n        /* \"#utility.yul\":14045:14054   */\n      dup3\n        /* \"#utility.yul\":14026:14074   */\n      tag_97\n      jump\t// in\n    tag_265:\n        /* \"#utility.yul\":14018:14024   */\n      dup4\n        /* \"#utility.yul\":14011:14075   */\n      sstore\n        /* \"#utility.yul\":13933:14089   */\n      pop\n        /* \"#utility.yul\":13910:14089   */\n    tag_264:\n        /* \"#utility.yul\":14135:14136   */\n      0x01\n        /* \"#utility.yul\":14131:14132   */\n      0x02\n        /* \"#utility.yul\":14123:14129   */\n      dup9\n        /* \"#utility.yul\":14119:14133   */\n      mul\n        /* \"#utility.yul\":14115:14137   */\n      add\n        /* \"#utility.yul\":14109:14113   */\n      dup9\n        /* \"#utility.yul\":14102:14138   */\n      sstore\n        /* \"#utility.yul\":13537:14148   */\n      pop\n      pop\n      pop\n        /* \"#utility.yul\":13500:14387   */\n    tag_256:\n      pop\n        /* \"#utility.yul\":13090:14393   */\n      pop\n      pop\n      pop\n        /* \"#utility.yul\":12998:14393   */\n      pop\n      pop\n      jump\t// out\n        /* \"#utility.yul\":14399:14579   */\n    tag_99:\n        /* \"#utility.yul\":14447:14524   */\n      0x4e487b7100000000000000000000000000000000000000000000000000000000\n        /* \"#utility.yul\":14444:14445   */\n      0x00\n        /* \"#utility.yul\":14437:14525   */\n      mstore\n        /* \"#utility.yul\":14544:14548   */\n      0x11\n        /* \"#utility.yul\":14541:14542   */\n      0x04\n        /* \"#utility.yul\":14534:14549   */\n      mstore\n        /* \"#utility.yul\":14568:14572   */\n      0x24\n        /* \"#utility.yul\":14565:14566   */\n      0x00\n        /* \"#utility.yul\":14558:14573   */\n      revert\n        /* \"#utility.yul\":14585:14818   */\n    tag_30:\n        /* \"#utility.yul\":14624:14627   */\n      0x00\n        /* \"#utility.yul\":14647:14671   */\n      tag_268\n        /* \"#utility.yul\":14665:14670   */\n      dup3\n        /* \"#utility.yul\":14647:14671   */\n      tag_54\n      jump\t// in\n    tag_268:\n        /* \"#utility.yul\":14638:14671   */\n      swap2\n      pop\n        /* \"#utility.yul\":14693:14759   */\n      0xffffffffffffffffffffffffffffffffffffffffffffffffffffffffffffffff\n        /* \"#utility.yul\":14686:14691   */\n      dup3\n        /* \"#utility.yul\":14683:14760   */\n      sub\n        /* \"#utility.yul\":14680:14783   */\n      tag_269\n      jumpi\n        /* \"#utility.yul\":14763:14781   */\n      tag_270\n      tag_99\n      jump\t// in\n    tag_270:\n        /* \"#utility.yul\":14680:14783   */\n    tag_269:\n        /* \"#utility.yul\":14810:14811   */\n      0x01\n        /* \"#utility.yul\":14803:14808   */\n      dup3\n        /* \"#utility.yul\":14799:14812   */\n      add\n        /* \"#utility.yul\":14792:14812   */\n      swap1\n      pop\n        /* \"#utility.yul\":14585:14818   */\n      swap2\n      swap1\n      pop\n      jump\t// out\n        /* \"#utility.yul\":14824:14972   */\n    tag_100:\n        /* \"#utility.yul\":14926:14937   */\n      0x00\n        /* \"#utility.yul\":14963:14966   */\n      dup2\n        /* \"#utility.yul\":14948:14966   */\n      swap1\n      pop\n        /* \"#utility.yul\":14824:14972   */\n      swap3\n      swap2\n      pop\n      pop\n      jump\t// out\n        /* \"#utility.yul\":14978:15151   */\n    tag_101:\n        /* \"#utility.yul\":15118:15143   */\n      0x4f6e6c7920636f6e7472616374206f776e65722063616e000000000000000000\n        /* \"#utility.yul\":15114:15115   */\n      0x00\n        /* \"#utility.yul\":15106:15112   */\n      dup3\n        /* \"#utility.yul\":15102:15116   */\n      add\n        /* \"#utility.yul\":15095:15144   */\n      mstore\n        /* \"#utility.yul\":14978:15151   */\n      pop\n      jump\t// out\n        /* \"#utility.yul\":15157:15559   */\n    tag_102:\n        /* \"#utility.yul\":15317:15320   */\n      0x00\n        /* \"#utility.yul\":15338:15423   */\n      tag_274\n        /* \"#utility.yul\":15420:15422   */\n      0x17\n        /* \"#utility.yul\":15415:15418   */\n      dup4\n        /* \"#utility.yul\":15338:15423   */\n      tag_100\n      jump\t// in\n    tag_274:\n        /* \"#utility.yul\":15331:15423   */\n      swap2\n      pop\n        /* \"#utility.yul\":15432:15525   */\n      tag_275\n        /* \"#utility.yul\":15521:15524   */\n      dup3\n        /* \"#utility.yul\":15432:15525   */\n      tag_101\n      jump\t// in\n    tag_275:\n        /* \"#utility.yul\":15550:15552   */\n      0x17\n        /* \"#utility.yul\":15545:15548   */\n      dup3\n        /* \"#utility.yul\":15541:15553   */\n      add\n        /* \"#utility.yul\":15534:15553   */\n      swap1\n      pop\n        /* \"#utility.yul\":15157:15559   */\n      swap2\n      swap1\n      pop\n      jump\t// out\n        /* \"#utility.yul\":15565:15955   */\n    tag_103:\n        /* \"#utility.yul\":15671:15674   */\n      0x00\n        /* \"#utility.yul\":15699:15738   */\n      tag_277\n        /* \"#utility.yul\":15732:15737   */\n      dup3\n        /* \"#utility.yul\":15699:15738   */\n      tag_67\n      jump\t// in\n    tag_277:\n        /* \"#utility.yul\":15754:15843   */\n      tag_278\n        /* \"#utility.yul\":15836:15842   */\n      dup2\n        /* \"#utility.yul\":15831:15834   */\n      dup6\n        /* \"#utility.yul\":15754:15843   */\n      tag_100\n      jump\t// in\n    tag_278:\n        /* \"#utility.yul\":15747:15843   */\n      swap4\n      pop\n        /* \"#utility.yul\":15852:15917   */\n      tag_279\n        /* \"#utility.yul\":15910:15916   */\n      dup2\n        /* \"#utility.yul\":15905:15908   */\n      dup6\n        /* \"#utility.yul\":15898:15902   */\n      0x20\n        /* \"#utility.yul\":15891:15896   */\n      dup7\n        /* \"#utility.yul\":15887:15903   */\n      add\n        /* \"#utility.yul\":15852:15917   */\n      tag_69\n      jump\t// in\n    tag_279:\n        /* \"#utility.yul\":15942:15948   */\n      dup1\n        /* \"#utility.yul\":15937:15940   */\n      dup5\n        /* \"#utility.yul\":15933:15949   */\n      add\n        /* \"#utility.yul\":15926:15949   */\n      swap2\n      pop\n        /* \"#utility.yul\":15675:15955   */\n      pop\n        /* \"#utility.yul\":15565:15955   */\n      swap3\n      swap2\n      pop\n      pop\n      jump\t// out\n        /* \"#utility.yul\":15961:16502   */\n    tag_42:\n        /* \"#utility.yul\":16194:16197   */\n      0x00\n        /* \"#utility.yul\":16216:16364   */\n      tag_281\n        /* \"#utility.yul\":16360:16363   */\n      dup3\n        /* \"#utility.yul\":16216:16364   */\n      tag_102\n      jump\t// in\n    tag_281:\n        /* \"#utility.yul\":16209:16364   */\n      swap2\n      pop\n        /* \"#utility.yul\":16381:16476   */\n      tag_282\n        /* \"#utility.yul\":16472:16475   */\n      dup3\n        /* \"#utility.yul\":16463:16469   */\n      dup5\n        /* \"#utility.yul\":16381:16476   */\n      tag_103\n      jump\t// in\n    tag_282:\n        /* \"#utility.yul\":16374:16476   */\n      swap2\n      pop\n        /* \"#utility.yul\":16493:16496   */\n      dup2\n        /* \"#utility.yul\":16486:16496   */\n      swap1\n      pop\n        /* \"#utility.yul\":15961:16502   */\n      swap3\n      swap2\n      pop\n      pop\n      jump\t// out\n        /* \"#utility.yul\":16508:16677   */\n    tag_104:\n        /* \"#utility.yul\":16592:16603   */\n      0x00\n        /* \"#utility.yul\":16626:16632   */\n      dup3\n        /* \"#utility.yul\":16621:16624   */\n      dup3\n        /* \"#utility.yul\":16614:16633   */\n      mstore\n        /* \"#utility.yul\":16666:16670   */\n      0x20\n        /* \"#utility.yul\":16661:16664   */\n      dup3\n        /* \"#utility.yul\":16657:16671   */\n      add\n        /* \"#utility.yul\":16642:16671   */\n      swap1\n      pop\n        /* \"#utility.yul\":16508:16677   */\n      swap3\n      swap2\n      pop\n      pop\n      jump\t// out\n        /* \"#utility.yul\":16683:17060   */\n    tag_105:\n        /* \"#utility.yul\":16771:16774   */\n      0x00\n        /* \"#utility.yul\":16799:16838   */\n      tag_285\n        /* \"#utility.yul\":16832:16837   */\n      dup3\n        /* \"#utility.yul\":16799:16838   */\n      tag_67\n      jump\t// in\n    tag_285:\n        /* \"#utility.yul\":16854:16925   */\n      tag_286\n        /* \"#utility.yul\":16918:16924   */\n      dup2\n        /* \"#utility.yul\":16913:16916   */\n      dup6\n        /* \"#utility.yul\":16854:16925   */\n      tag_104\n      jump\t// in\n    tag_286:\n        /* \"#utility.yul\":16847:16925   */\n      swap4\n      pop\n        /* \"#utility.yul\":16934:16999   */\n      tag_287\n        /* \"#utility.yul\":16992:16998   */\n      dup2\n        /* \"#utility.yul\":16987:16990   */\n      dup6\n        /* \"#utility.yul\":16980:16984   */\n      0x20\n        /* \"#utility.yul\":16973:16978   */\n      dup7\n        /* \"#utility.yul\":16969:16985   */\n      add\n        /* \"#utility.yul\":16934:16999   */\n      tag_69\n      jump\t// in\n    tag_287:\n        /* \"#utility.yul\":17024:17053   */\n      tag_288\n        /* \"#utility.yul\":17046:17052   */\n      dup2\n        /* \"#utility.yul\":17024:17053   */\n      tag_59\n      jump\t// in\n    tag_288:\n        /* \"#utility.yul\":17019:17022   */\n      dup5\n        /* \"#utility.yul\":17015:17054   */\n      add\n        /* \"#utility.yul\":17008:17054   */\n      swap2\n      pop\n        /* \"#utility.yul\":16775:17060   */\n      pop\n        /* \"#utility.yul\":16683:17060   */\n      swap3\n      swap2\n      pop\n      pop\n      jump\t// out\n        /* \"#utility.yul\":17066:17379   */\n    tag_45:\n        /* \"#utility.yul\":17179:17183   */\n      0x00\n        /* \"#utility.yul\":17217:17219   */\n      0x20\n        /* \"#utility.yul\":17206:17215   */\n      dup3\n        /* \"#utility.yul\":17202:17220   */\n      add\n        /* \"#utility.yul\":17194:17220   */\n      swap1\n      pop\n        /* \"#utility.yul\":17266:17275   */\n      dup2\n        /* \"#utility.yul\":17260:17264   */\n      dup2\n        /* \"#utility.yul\":17256:17276   */\n      sub\n        /* \"#utility.yul\":17252:17253   */\n      0x00\n        /* \"#utility.yul\":17241:17250   */\n      dup4\n        /* \"#utility.yul\":17237:17254   */\n      add\n        /* \"#utility.yul\":17230:17277   */\n      mstore\n        /* \"#utility.yul\":17294:17372   */\n      tag_290\n        /* \"#utility.yul\":17367:17371   */\n      dup2\n        /* \"#utility.yul\":17358:17364   */\n      dup5\n        /* \"#utility.yul\":17294:17372   */\n      tag_105\n      jump\t// in\n    tag_290:\n        /* \"#utility.yul\":17286:17372   */\n      swap1\n      pop\n        /* \"#utility.yul\":17066:17379   */\n      swap3\n      swap2\n      pop\n      pop\n      jump\t// out\n        /* \"#utility.yul\":17385:17555   */\n    tag_106:\n        /* \"#utility.yul\":17525:17547   */\n      0x4f7264657220646f6573206e6f74206578697374000000000000000000000000\n        /* \"#utility.yul\":17521:17522   */\n      0x00\n        /* \"#utility.yul\":17513:17519   */\n      dup3\n        /* \"#utility.yul\":17509:17523   */\n      add\n        /* \"#utility.yul\":17502:17548   */\n      mstore\n        /* \"#utility.yul\":17385:17555   */\n      pop\n      jump\t// out\n        /* \"#utility.yul\":17561:17927   */\n    tag_107:\n        /* \"#utility.yul\":17703:17706   */\n      0x00\n        /* \"#utility.yul\":17724:17791   */\n      tag_293\n        /* \"#utility.yul\":17788:17790   */\n      0x14\n        /* \"#utility.yul\":17783:17786   */\n      dup4\n        /* \"#utility.yul\":17724:17791   */\n      tag_104\n      jump\t// in\n    tag_293:\n        /* \"#utility.yul\":17717:17791   */\n      swap2\n      pop\n        /* \"#utility.yul\":17800:17893   */\n      tag_294\n        /* \"#utility.yul\":17889:17892   */\n      dup3\n        /* \"#utility.yul\":17800:17893   */\n      tag_106\n      jump\t// in\n    tag_294:\n        /* \"#utility.yul\":17918:17920   */\n      0x20\n        /* \"#utility.yul\":17913:17916   */\n      dup3\n        /* \"#utility.yul\":17909:17921   */\n      add\n        /* \"#utility.yul\":17902:17921   */\n      swap1\n      pop\n        /* \"#utility.yul\":17561:17927   */\n      swap2\n      swap1\n      pop\n      jump\t// out\n        /* \"#utility.yul\":17933:18352   */\n    tag_49:\n        /* \"#utility.yul\":18099:18103   */\n      0x00\n        /* \"#utility.yul\":18137:18139   */\n      0x20\n        /* \"#utility.yul\":18126:18135   */\n      dup3\n        /* \"#utility.yul\":18122:18140   */\n      add\n        /* \"#utility.yul\":18114:18140   */\n      swap1\n      pop\n        /* \"#utility.yul\":18186:18195   */\n      dup2\n        /* \"#utility.yul\":18180:18184   */\n      dup2\n        /* \"#utility.yul\":18176:18196   */\n      sub\n        /* \"#utility.yul\":18172:18173   */\n      0x00\n        /* \"#utility.yul\":18161:18170   */\n      dup4\n        /* \"#utility.yul\":18157:18174   */\n      add\n        /* \"#utility.yul\":18150:18197   */\n      mstore\n        /* \"#utility.yul\":18214:18345   */\n      tag_296\n        /* \"#utility.yul\":18340:18344   */\n      dup2\n        /* \"#utility.yul\":18214:18345   */\n      tag_107\n      jump\t// in\n    tag_296:\n        /* \"#utility.yul\":18206:18345   */\n      swap1\n      pop\n        /* \"#utility.yul\":17933:18352   */\n      swap2\n      swap1\n      pop\n      jump\t// out\n\n    auxdata: 0xa2646970667358221220e42884d0e9b9a1fa761a847dbce1ddcb9c3fd80ac9c84bd22a1a1b90442b5faf64736f6c63430008190033\n}\n",
				"bytecode": {
					"linkReferences": {},
					"object": "608060405234801561000f575f80fd5b50604051610ef2380380610ef2833981810160405281019061003191906100d4565b805f806101000a81548173ffffffffffffffffffffffffffffffffffffffff021916908373ffffffffffffffffffffffffffffffffffffffff160217905550506100ff565b5f80fd5b5f73ffffffffffffffffffffffffffffffffffffffff82169050919050565b5f6100a38261007a565b9050919050565b6100b381610099565b81146100bd575f80fd5b50565b5f815190506100ce816100aa565b92915050565b5f602082840312156100e9576100e8610076565b5b5f6100f6848285016100c0565b91505092915050565b610de68061010c5f395ff3fe60806040526004361061003e575f3560e01c80632832686f1461004257806329e99f071461005e5780638da5cb5b1461009a578063dc1fdba7146100c4575b5f80fd5b61005c600480360381019061005791906105d5565b6100e0565b005b348015610069575f80fd5b50610084600480360381019061007f9190610655565b61017c565b6040516100919190610769565b60405180910390f35b3480156100a5575f80fd5b506100ae610264565b6040516100bb91906107c8565b60405180910390f35b6100de60048036038101906100d991906108a4565b610287565b005b60405180608001604052808481526020018381526020018281526020016001151581525060025f8681526020019081526020015f205f820151815f0190816101289190610af8565b5060208201518160010155604082015181600201556060820151816003015f6101000a81548160ff02191690831515021790555090505060015f81548092919061017190610bf4565b919050555050505050565b61018461042e565b60025f8381526020019081526020015f206040518060800160405290815f820180546101af9061092b565b80601f01602080910402602001604051908101604052809291908181526020018280546101db9061092b565b80156102265780601f106101fd57610100808354040283529160200191610226565b820191905f5260205f20905b81548152906001019060200180831161020957829003601f168201915b505050505081526020016001820154815260200160028201548152602001600382015f9054906101000a900460ff1615151515815250509050919050565b5f8054906101000a900473ffffffffffffffffffffffffffffffffffffffff1681565b6040518060400160405280600681526020017f75706461746500000000000000000000000000000000000000000000000000008152505f8054906101000a900473ffffffffffffffffffffffffffffffffffffffff1673ffffffffffffffffffffffffffffffffffffffff163373ffffffffffffffffffffffffffffffffffffffff16148160405160200161031c9190610cbf565b6040516020818303038152906040529061036c576040517f08c379a00000000000000000000000000000000000000000000000000000000081526004016103639190610d28565b60405180910390fd5b5060025f8481526020019081526020015f206003015f9054906101000a900460ff166103cd576040517f08c379a00000000000000000000000000000000000000000000000000000000081526004016103c490610d92565b60405180910390fd5b8160025f8581526020019081526020015f205f820151815f0190816103f29190610af8565b5060208201518160010155604082015181600201556060820151816003015f6101000a81548160ff021916908315150217905550905050505050565b6040518060800160405280606081526020015f81526020015f81526020015f151581525090565b5f604051905090565b5f80fd5b5f80fd5b5f819050919050565b61047881610466565b8114610482575f80fd5b50565b5f813590506104938161046f565b92915050565b5f80fd5b5f80fd5b5f601f19601f8301169050919050565b7f4e487b71000000000000000000000000000000000000000000000000000000005f52604160045260245ffd5b6104e7826104a1565b810181811067ffffffffffffffff82111715610506576105056104b1565b5b80604052505050565b5f610518610455565b905061052482826104de565b919050565b5f67ffffffffffffffff821115610543576105426104b1565b5b61054c826104a1565b9050602081019050919050565b828183375f83830152505050565b5f61057961057484610529565b61050f565b9050828152602081018484840111156105955761059461049d565b5b6105a0848285610559565b509392505050565b5f82601f8301126105bc576105bb610499565b5b81356105cc848260208601610567565b91505092915050565b5f805f80608085870312156105ed576105ec61045e565b5b5f6105fa87828801610485565b945050602085013567ffffffffffffffff81111561061b5761061a610462565b5b610627878288016105a8565b935050604061063887828801610485565b925050606061064987828801610485565b91505092959194509250565b5f6020828403121561066a5761066961045e565b5b5f61067784828501610485565b91505092915050565b5f81519050919050565b5f82825260208201905092915050565b8281835e5f83830152505050565b5f6106b282610680565b6106bc818561068a565b93506106cc81856020860161069a565b6106d5816104a1565b840191505092915050565b6106e981610466565b82525050565b5f8115159050919050565b610703816106ef565b82525050565b5f608083015f8301518482035f86015261072382826106a8565b915050602083015161073860208601826106e0565b50604083015161074b60408601826106e0565b50606083015161075e60608601826106fa565b508091505092915050565b5f6020820190508181035f8301526107818184610709565b905092915050565b5f73ffffffffffffffffffffffffffffffffffffffff82169050919050565b5f6107b282610789565b9050919050565b6107c2816107a8565b82525050565b5f6020820190506107db5f8301846107b9565b92915050565b5f80fd5b5f80fd5b6107f2816106ef565b81146107fc575f80fd5b50565b5f8135905061080d816107e9565b92915050565b5f60808284031215610828576108276107e1565b5b610832608061050f565b90505f82013567ffffffffffffffff811115610851576108506107e5565b5b61085d848285016105a8565b5f83015250602061087084828501610485565b602083015250604061088484828501610485565b6040830152506060610898848285016107ff565b60608301525092915050565b5f80604083850312156108ba576108b961045e565b5b5f6108c785828601610485565b925050602083013567ffffffffffffffff8111156108e8576108e7610462565b5b6108f485828601610813565b9150509250929050565b7f4e487b71000000000000000000000000000000000000000000000000000000005f52602260045260245ffd5b5f600282049050600182168061094257607f821691505b602082108103610955576109546108fe565b5b50919050565b5f819050815f5260205f209050919050565b5f6020601f8301049050919050565b5f82821b905092915050565b5f600883026109b77fffffffffffffffffffffffffffffffffffffffffffffffffffffffffffffffff8261097c565b6109c1868361097c565b95508019841693508086168417925050509392505050565b5f819050919050565b5f6109fc6109f76109f284610466565b6109d9565b610466565b9050919050565b5f819050919050565b610a15836109e2565b610a29610a2182610a03565b848454610988565b825550505050565b5f90565b610a3d610a31565b610a48818484610a0c565b505050565b5b81811015610a6b57610a605f82610a35565b600181019050610a4e565b5050565b601f821115610ab057610a818161095b565b610a8a8461096d565b81016020851015610a99578190505b610aad610aa58561096d565b830182610a4d565b50505b505050565b5f82821c905092915050565b5f610ad05f1984600802610ab5565b1980831691505092915050565b5f610ae88383610ac1565b9150826002028217905092915050565b610b0182610680565b67ffffffffffffffff811115610b1a57610b196104b1565b5b610b24825461092b565b610b2f828285610a6f565b5f60209050601f831160018114610b60575f8415610b4e578287015190505b610b588582610add565b865550610bbf565b601f198416610b6e8661095b565b5f5b82811015610b9557848901518255600182019150602085019450602081019050610b70565b86831015610bb25784890151610bae601f891682610ac1565b8355505b6001600288020188555050505b505050505050565b7f4e487b71000000000000000000000000000000000000000000000000000000005f52601160045260245ffd5b5f610bfe82610466565b91507fffffffffffffffffffffffffffffffffffffffffffffffffffffffffffffffff8203610c3057610c2f610bc7565b5b600182019050919050565b5f81905092915050565b7f4f6e6c7920636f6e7472616374206f776e65722063616e0000000000000000005f82015250565b5f610c79601783610c3b565b9150610c8482610c45565b601782019050919050565b5f610c9982610680565b610ca38185610c3b565b9350610cb381856020860161069a565b80840191505092915050565b5f610cc982610c6d565b9150610cd58284610c8f565b915081905092915050565b5f82825260208201905092915050565b5f610cfa82610680565b610d048185610ce0565b9350610d1481856020860161069a565b610d1d816104a1565b840191505092915050565b5f6020820190508181035f830152610d408184610cf0565b905092915050565b7f4f7264657220646f6573206e6f742065786973740000000000000000000000005f82015250565b5f610d7c601483610ce0565b9150610d8782610d48565b602082019050919050565b5f6020820190508181035f830152610da981610d70565b905091905056fea2646970667358221220e42884d0e9b9a1fa761a847dbce1ddcb9c3fd80ac9c84bd22a1a1b90442b5faf64736f6c63430008190033",
					"opcodes": "PUSH1 0x80 PUSH1 0x40 MSTORE CALLVALUE DUP1 ISZERO PUSH2 0xF JUMPI PUSH0 DUP1 REVERT JUMPDEST POP PUSH1 0x40 MLOAD PUSH2 0xEF2 CODESIZE SUB DUP1 PUSH2 0xEF2 DUP4 CODECOPY DUP2 DUP2 ADD PUSH1 0x40 MSTORE DUP2 ADD SWAP1 PUSH2 0x31 SWAP2 SWAP1 PUSH2 0xD4 JUMP JUMPDEST DUP1 PUSH0 DUP1 PUSH2 0x100 EXP DUP2 SLOAD DUP2 PUSH20 0xFFFFFFFFFFFFFFFFFFFFFFFFFFFFFFFFFFFFFFFF MUL NOT AND SWAP1 DUP4 PUSH20 0xFFFFFFFFFFFFFFFFFFFFFFFFFFFFFFFFFFFFFFFF AND MUL OR SWAP1 SSTORE POP POP PUSH2 0xFF JUMP JUMPDEST PUSH0 DUP1 REVERT JUMPDEST PUSH0 PUSH20 0xFFFFFFFFFFFFFFFFFFFFFFFFFFFFFFFFFFFFFFFF DUP3 AND SWAP1 POP SWAP2 SWAP1 POP JUMP JUMPDEST PUSH0 PUSH2 0xA3 DUP3 PUSH2 0x7A JUMP JUMPDEST SWAP1 POP SWAP2 SWAP1 POP JUMP JUMPDEST PUSH2 0xB3 DUP2 PUSH2 0x99 JUMP JUMPDEST DUP2 EQ PUSH2 0xBD JUMPI PUSH0 DUP1 REVERT JUMPDEST POP JUMP JUMPDEST PUSH0 DUP2 MLOAD SWAP1 POP PUSH2 0xCE DUP2 PUSH2 0xAA JUMP JUMPDEST SWAP3 SWAP2 POP POP JUMP JUMPDEST PUSH0 PUSH1 0x20 DUP3 DUP5 SUB SLT ISZERO PUSH2 0xE9 JUMPI PUSH2 0xE8 PUSH2 0x76 JUMP JUMPDEST JUMPDEST PUSH0 PUSH2 0xF6 DUP5 DUP3 DUP6 ADD PUSH2 0xC0 JUMP JUMPDEST SWAP2 POP POP SWAP3 SWAP2 POP POP JUMP JUMPDEST PUSH2 0xDE6 DUP1 PUSH2 0x10C PUSH0 CODECOPY PUSH0 RETURN INVALID PUSH1 0x80 PUSH1 0x40 MSTORE PUSH1 0x4 CALLDATASIZE LT PUSH2 0x3E JUMPI PUSH0 CALLDATALOAD PUSH1 0xE0 SHR DUP1 PUSH4 0x2832686F EQ PUSH2 0x42 JUMPI DUP1 PUSH4 0x29E99F07 EQ PUSH2 0x5E JUMPI DUP1 PUSH4 0x8DA5CB5B EQ PUSH2 0x9A JUMPI DUP1 PUSH4 0xDC1FDBA7 EQ PUSH2 0xC4 JUMPI JUMPDEST PUSH0 DUP1 REVERT JUMPDEST PUSH2 0x5C PUSH1 0x4 DUP1 CALLDATASIZE SUB DUP2 ADD SWAP1 PUSH2 0x57 SWAP2 SWAP1 PUSH2 0x5D5 JUMP JUMPDEST PUSH2 0xE0 JUMP JUMPDEST STOP JUMPDEST CALLVALUE DUP1 ISZERO PUSH2 0x69 JUMPI PUSH0 DUP1 REVERT JUMPDEST POP PUSH2 0x84 PUSH1 0x4 DUP1 CALLDATASIZE SUB DUP2 ADD SWAP1 PUSH2 0x7F SWAP2 SWAP1 PUSH2 0x655 JUMP JUMPDEST PUSH2 0x17C JUMP JUMPDEST PUSH1 0x40 MLOAD PUSH2 0x91 SWAP2 SWAP1 PUSH2 0x769 JUMP JUMPDEST PUSH1 0x40 MLOAD DUP1 SWAP2 SUB SWAP1 RETURN JUMPDEST CALLVALUE DUP1 ISZERO PUSH2 0xA5 JUMPI PUSH0 DUP1 REVERT JUMPDEST POP PUSH2 0xAE PUSH2 0x264 JUMP JUMPDEST PUSH1 0x40 MLOAD PUSH2 0xBB SWAP2 SWAP1 PUSH2 0x7C8 JUMP JUMPDEST PUSH1 0x40 MLOAD DUP1 SWAP2 SUB SWAP1 RETURN JUMPDEST PUSH2 0xDE PUSH1 0x4 DUP1 CALLDATASIZE SUB DUP2 ADD SWAP1 PUSH2 0xD9 SWAP2 SWAP1 PUSH2 0x8A4 JUMP JUMPDEST PUSH2 0x287 JUMP JUMPDEST STOP JUMPDEST PUSH1 0x40 MLOAD DUP1 PUSH1 0x80 ADD PUSH1 0x40 MSTORE DUP1 DUP5 DUP2 MSTORE PUSH1 0x20 ADD DUP4 DUP2 MSTORE PUSH1 0x20 ADD DUP3 DUP2 MSTORE PUSH1 0x20 ADD PUSH1 0x1 ISZERO ISZERO DUP2 MSTORE POP PUSH1 0x2 PUSH0 DUP7 DUP2 MSTORE PUSH1 0x20 ADD SWAP1 DUP2 MSTORE PUSH1 0x20 ADD PUSH0 KECCAK256 PUSH0 DUP3 ADD MLOAD DUP2 PUSH0 ADD SWAP1 DUP2 PUSH2 0x128 SWAP2 SWAP1 PUSH2 0xAF8 JUMP JUMPDEST POP PUSH1 0x20 DUP3 ADD MLOAD DUP2 PUSH1 0x1 ADD SSTORE PUSH1 0x40 DUP3 ADD MLOAD DUP2 PUSH1 0x2 ADD SSTORE PUSH1 0x60 DUP3 ADD MLOAD DUP2 PUSH1 0x3 ADD PUSH0 PUSH2 0x100 EXP DUP2 SLOAD DUP2 PUSH1 0xFF MUL NOT AND SWAP1 DUP4 ISZERO ISZERO MUL OR SWAP1 SSTORE POP SWAP1 POP POP PUSH1 0x1 PUSH0 DUP2 SLOAD DUP1 SWAP3 SWAP2 SWAP1 PUSH2 0x171 SWAP1 PUSH2 0xBF4 JUMP JUMPDEST SWAP2 SWAP1 POP SSTORE POP POP POP POP POP JUMP JUMPDEST PUSH2 0x184 PUSH2 0x42E JUMP JUMPDEST PUSH1 0x2 PUSH0 DUP4 DUP2 MSTORE PUSH1 0x20 ADD SWAP1 DUP2 MSTORE PUSH1 0x20 ADD PUSH0 KECCAK256 PUSH1 0x40 MLOAD DUP1 PUSH1 0x80 ADD PUSH1 0x40 MSTORE SWAP1 DUP2 PUSH0 DUP3 ADD DUP1 SLOAD PUSH2 0x1AF SWAP1 PUSH2 0x92B JUMP JUMPDEST DUP1 PUSH1 0x1F ADD PUSH1 0x20 DUP1 SWAP2 DIV MUL PUSH1 0x20 ADD PUSH1 0x40 MLOAD SWAP1 DUP2 ADD PUSH1 0x40 MSTORE DUP1 SWAP3 SWAP2 SWAP1 DUP2 DUP2 MSTORE PUSH1 0x20 ADD DUP3 DUP1 SLOAD PUSH2 0x1DB SWAP1 PUSH2 0x92B JUMP JUMPDEST DUP1 ISZERO PUSH2 0x226 JUMPI DUP1 PUSH1 0x1F LT PUSH2 0x1FD JUMPI PUSH2 0x100 DUP1 DUP4 SLOAD DIV MUL DUP4 MSTORE SWAP2 PUSH1 0x20 ADD SWAP2 PUSH2 0x226 JUMP JUMPDEST DUP3 ADD SWAP2 SWAP1 PUSH0 MSTORE PUSH1 0x20 PUSH0 KECCAK256 SWAP1 JUMPDEST DUP2 SLOAD DUP2 MSTORE SWAP1 PUSH1 0x1 ADD SWAP1 PUSH1 0x20 ADD DUP1 DUP4 GT PUSH2 0x209 JUMPI DUP3 SWAP1 SUB PUSH1 0x1F AND DUP3 ADD SWAP2 JUMPDEST POP POP POP POP POP DUP2 MSTORE PUSH1 0x20 ADD PUSH1 0x1 DUP3 ADD SLOAD DUP2 MSTORE PUSH1 0x20 ADD PUSH1 0x2 DUP3 ADD SLOAD DUP2 MSTORE PUSH1 0x20 ADD PUSH1 0x3 DUP3 ADD PUSH0 SWAP1 SLOAD SWAP1 PUSH2 0x100 EXP SWAP1 DIV PUSH1 0xFF AND ISZERO ISZERO ISZERO ISZERO DUP2 MSTORE POP POP SWAP1 POP SWAP2 SWAP1 POP JUMP JUMPDEST PUSH0 DUP1 SLOAD SWAP1 PUSH2 0x100 EXP SWAP1 DIV PUSH20 0xFFFFFFFFFFFFFFFFFFFFFFFFFFFFFFFFFFFFFFFF AND DUP2 JUMP JUMPDEST PUSH1 0x40 MLOAD DUP1 PUSH1 0x40 ADD PUSH1 0x40 MSTORE DUP1 PUSH1 0x6 DUP2 MSTORE PUSH1 0x20 ADD PUSH32 0x7570646174650000000000000000000000000000000000000000000000000000 DUP2 MSTORE POP PUSH0 DUP1 SLOAD SWAP1 PUSH2 0x100 EXP SWAP1 DIV PUSH20 0xFFFFFFFFFFFFFFFFFFFFFFFFFFFFFFFFFFFFFFFF AND PUSH20 0xFFFFFFFFFFFFFFFFFFFFFFFFFFFFFFFFFFFFFFFF AND CALLER PUSH20 0xFFFFFFFFFFFFFFFFFFFFFFFFFFFFFFFFFFFFFFFF AND EQ DUP2 PUSH1 0x40 MLOAD PUSH1 0x20 ADD PUSH2 0x31C SWAP2 SWAP1 PUSH2 0xCBF JUMP JUMPDEST PUSH1 0x40 MLOAD PUSH1 0x20 DUP2 DUP4 SUB SUB DUP2 MSTORE SWAP1 PUSH1 0x40 MSTORE SWAP1 PUSH2 0x36C JUMPI PUSH1 0x40 MLOAD PUSH32 0x8C379A000000000000000000000000000000000000000000000000000000000 DUP2 MSTORE PUSH1 0x4 ADD PUSH2 0x363 SWAP2 SWAP1 PUSH2 0xD28 JUMP JUMPDEST PUSH1 0x40 MLOAD DUP1 SWAP2 SUB SWAP1 REVERT JUMPDEST POP PUSH1 0x2 PUSH0 DUP5 DUP2 MSTORE PUSH1 0x20 ADD SWAP1 DUP2 MSTORE PUSH1 0x20 ADD PUSH0 KECCAK256 PUSH1 0x3 ADD PUSH0 SWAP1 SLOAD SWAP1 PUSH2 0x100 EXP SWAP1 DIV PUSH1 0xFF AND PUSH2 0x3CD JUMPI PUSH1 0x40 MLOAD PUSH32 0x8C379A000000000000000000000000000000000000000000000000000000000 DUP2 MSTORE PUSH1 0x4 ADD PUSH2 0x3C4 SWAP1 PUSH2 0xD92 JUMP JUMPDEST PUSH1 0x40 MLOAD DUP1 SWAP2 SUB SWAP1 REVERT JUMPDEST DUP2 PUSH1 0x2 PUSH0 DUP6 DUP2 MSTORE PUSH1 0x20 ADD SWAP1 DUP2 MSTORE PUSH1 0x20 ADD PUSH0 KECCAK256 PUSH0 DUP3 ADD MLOAD DUP2 PUSH0 ADD SWAP1 DUP2 PUSH2 0x3F2 SWAP2 SWAP1 PUSH2 0xAF8 JUMP JUMPDEST POP PUSH1 0x20 DUP3 ADD MLOAD DUP2 PUSH1 0x1 ADD SSTORE PUSH1 0x40 DUP3 ADD MLOAD DUP2 PUSH1 0x2 ADD SSTORE PUSH1 0x60 DUP3 ADD MLOAD DUP2 PUSH1 0x3 ADD PUSH0 PUSH2 0x100 EXP DUP2 SLOAD DUP2 PUSH1 0xFF MUL NOT AND SWAP1 DUP4 ISZERO ISZERO MUL OR SWAP1 SSTORE POP SWAP1 POP POP POP POP POP JUMP JUMPDEST PUSH1 0x40 MLOAD DUP1 PUSH1 0x80 ADD PUSH1 0x40 MSTORE DUP1 PUSH1 0x60 DUP2 MSTORE PUSH1 0x20 ADD PUSH0 DUP2 MSTORE PUSH1 0x20 ADD PUSH0 DUP2 MSTORE PUSH1 0x20 ADD PUSH0 ISZERO ISZERO DUP2 MSTORE POP SWAP1 JUMP JUMPDEST PUSH0 PUSH1 0x40 MLOAD SWAP1 POP SWAP1 JUMP JUMPDEST PUSH0 DUP1 REVERT JUMPDEST PUSH0 DUP1 REVERT JUMPDEST PUSH0 DUP2 SWAP1 POP SWAP2 SWAP1 POP JUMP JUMPDEST PUSH2 0x478 DUP2 PUSH2 0x466 JUMP JUMPDEST DUP2 EQ PUSH2 0x482 JUMPI PUSH0 DUP1 REVERT JUMPDEST POP JUMP JUMPDEST PUSH0 DUP2 CALLDATALOAD SWAP1 POP PUSH2 0x493 DUP2 PUSH2 0x46F JUMP JUMPDEST SWAP3 SWAP2 POP POP JUMP JUMPDEST PUSH0 DUP1 REVERT JUMPDEST PUSH0 DUP1 REVERT JUMPDEST PUSH0 PUSH1 0x1F NOT PUSH1 0x1F DUP4 ADD AND SWAP1 POP SWAP2 SWAP1 POP JUMP JUMPDEST PUSH32 0x4E487B7100000000000000000000000000000000000000000000000000000000 PUSH0 MSTORE PUSH1 0x41 PUSH1 0x4 MSTORE PUSH1 0x24 PUSH0 REVERT JUMPDEST PUSH2 0x4E7 DUP3 PUSH2 0x4A1 JUMP JUMPDEST DUP2 ADD DUP2 DUP2 LT PUSH8 0xFFFFFFFFFFFFFFFF DUP3 GT OR ISZERO PUSH2 0x506 JUMPI PUSH2 0x505 PUSH2 0x4B1 JUMP JUMPDEST JUMPDEST DUP1 PUSH1 0x40 MSTORE POP POP POP JUMP JUMPDEST PUSH0 PUSH2 0x518 PUSH2 0x455 JUMP JUMPDEST SWAP1 POP PUSH2 0x524 DUP3 DUP3 PUSH2 0x4DE JUMP JUMPDEST SWAP2 SWAP1 POP JUMP JUMPDEST PUSH0 PUSH8 0xFFFFFFFFFFFFFFFF DUP3 GT ISZERO PUSH2 0x543 JUMPI PUSH2 0x542 PUSH2 0x4B1 JUMP JUMPDEST JUMPDEST PUSH2 0x54C DUP3 PUSH2 0x4A1 JUMP JUMPDEST SWAP1 POP PUSH1 0x20 DUP2 ADD SWAP1 POP SWAP2 SWAP1 POP JUMP JUMPDEST DUP3 DUP2 DUP4 CALLDATACOPY PUSH0 DUP4 DUP4 ADD MSTORE POP POP POP JUMP JUMPDEST PUSH0 PUSH2 0x579 PUSH2 0x574 DUP5 PUSH2 0x529 JUMP JUMPDEST PUSH2 0x50F JUMP JUMPDEST SWAP1 POP DUP3 DUP2 MSTORE PUSH1 0x20 DUP2 ADD DUP5 DUP5 DUP5 ADD GT ISZERO PUSH2 0x595 JUMPI PUSH2 0x594 PUSH2 0x49D JUMP JUMPDEST JUMPDEST PUSH2 0x5A0 DUP5 DUP3 DUP6 PUSH2 0x559 JUMP JUMPDEST POP SWAP4 SWAP3 POP POP POP JUMP JUMPDEST PUSH0 DUP3 PUSH1 0x1F DUP4 ADD SLT PUSH2 0x5BC JUMPI PUSH2 0x5BB PUSH2 0x499 JUMP JUMPDEST JUMPDEST DUP2 CALLDATALOAD PUSH2 0x5CC DUP5 DUP3 PUSH1 0x20 DUP7 ADD PUSH2 0x567 JUMP JUMPDEST SWAP2 POP POP SWAP3 SWAP2 POP POP JUMP JUMPDEST PUSH0 DUP1 PUSH0 DUP1 PUSH1 0x80 DUP6 DUP8 SUB SLT ISZERO PUSH2 0x5ED JUMPI PUSH2 0x5EC PUSH2 0x45E JUMP JUMPDEST JUMPDEST PUSH0 PUSH2 0x5FA DUP8 DUP3 DUP9 ADD PUSH2 0x485 JUMP JUMPDEST SWAP5 POP POP PUSH1 0x20 DUP6 ADD CALLDATALOAD PUSH8 0xFFFFFFFFFFFFFFFF DUP2 GT ISZERO PUSH2 0x61B JUMPI PUSH2 0x61A PUSH2 0x462 JUMP JUMPDEST JUMPDEST PUSH2 0x627 DUP8 DUP3 DUP9 ADD PUSH2 0x5A8 JUMP JUMPDEST SWAP4 POP POP PUSH1 0x40 PUSH2 0x638 DUP8 DUP3 DUP9 ADD PUSH2 0x485 JUMP JUMPDEST SWAP3 POP POP PUSH1 0x60 PUSH2 0x649 DUP8 DUP3 DUP9 ADD PUSH2 0x485 JUMP JUMPDEST SWAP2 POP POP SWAP3 SWAP6 SWAP2 SWAP5 POP SWAP3 POP JUMP JUMPDEST PUSH0 PUSH1 0x20 DUP3 DUP5 SUB SLT ISZERO PUSH2 0x66A JUMPI PUSH2 0x669 PUSH2 0x45E JUMP JUMPDEST JUMPDEST PUSH0 PUSH2 0x677 DUP5 DUP3 DUP6 ADD PUSH2 0x485 JUMP JUMPDEST SWAP2 POP POP SWAP3 SWAP2 POP POP JUMP JUMPDEST PUSH0 DUP2 MLOAD SWAP1 POP SWAP2 SWAP1 POP JUMP JUMPDEST PUSH0 DUP3 DUP3 MSTORE PUSH1 0x20 DUP3 ADD SWAP1 POP SWAP3 SWAP2 POP POP JUMP JUMPDEST DUP3 DUP2 DUP4 MCOPY PUSH0 DUP4 DUP4 ADD MSTORE POP POP POP JUMP JUMPDEST PUSH0 PUSH2 0x6B2 DUP3 PUSH2 0x680 JUMP JUMPDEST PUSH2 0x6BC DUP2 DUP6 PUSH2 0x68A JUMP JUMPDEST SWAP4 POP PUSH2 0x6CC DUP2 DUP6 PUSH1 0x20 DUP7 ADD PUSH2 0x69A JUMP JUMPDEST PUSH2 0x6D5 DUP2 PUSH2 0x4A1 JUMP JUMPDEST DUP5 ADD SWAP2 POP POP SWAP3 SWAP2 POP POP JUMP JUMPDEST PUSH2 0x6E9 DUP2 PUSH2 0x466 JUMP JUMPDEST DUP3 MSTORE POP POP JUMP JUMPDEST PUSH0 DUP2 ISZERO ISZERO SWAP1 POP SWAP2 SWAP1 POP JUMP JUMPDEST PUSH2 0x703 DUP2 PUSH2 0x6EF JUMP JUMPDEST DUP3 MSTORE POP POP JUMP JUMPDEST PUSH0 PUSH1 0x80 DUP4 ADD PUSH0 DUP4 ADD MLOAD DUP5 DUP3 SUB PUSH0 DUP7 ADD MSTORE PUSH2 0x723 DUP3 DUP3 PUSH2 0x6A8 JUMP JUMPDEST SWAP2 POP POP PUSH1 0x20 DUP4 ADD MLOAD PUSH2 0x738 PUSH1 0x20 DUP7 ADD DUP3 PUSH2 0x6E0 JUMP JUMPDEST POP PUSH1 0x40 DUP4 ADD MLOAD PUSH2 0x74B PUSH1 0x40 DUP7 ADD DUP3 PUSH2 0x6E0 JUMP JUMPDEST POP PUSH1 0x60 DUP4 ADD MLOAD PUSH2 0x75E PUSH1 0x60 DUP7 ADD DUP3 PUSH2 0x6FA JUMP JUMPDEST POP DUP1 SWAP2 POP POP SWAP3 SWAP2 POP POP JUMP JUMPDEST PUSH0 PUSH1 0x20 DUP3 ADD SWAP1 POP DUP2 DUP2 SUB PUSH0 DUP4 ADD MSTORE PUSH2 0x781 DUP2 DUP5 PUSH2 0x709 JUMP JUMPDEST SWAP1 POP SWAP3 SWAP2 POP POP JUMP JUMPDEST PUSH0 PUSH20 0xFFFFFFFFFFFFFFFFFFFFFFFFFFFFFFFFFFFFFFFF DUP3 AND SWAP1 POP SWAP2 SWAP1 POP JUMP JUMPDEST PUSH0 PUSH2 0x7B2 DUP3 PUSH2 0x789 JUMP JUMPDEST SWAP1 POP SWAP2 SWAP1 POP JUMP JUMPDEST PUSH2 0x7C2 DUP2 PUSH2 0x7A8 JUMP JUMPDEST DUP3 MSTORE POP POP JUMP JUMPDEST PUSH0 PUSH1 0x20 DUP3 ADD SWAP1 POP PUSH2 0x7DB PUSH0 DUP4 ADD DUP5 PUSH2 0x7B9 JUMP JUMPDEST SWAP3 SWAP2 POP POP JUMP JUMPDEST PUSH0 DUP1 REVERT JUMPDEST PUSH0 DUP1 REVERT JUMPDEST PUSH2 0x7F2 DUP2 PUSH2 0x6EF JUMP JUMPDEST DUP2 EQ PUSH2 0x7FC JUMPI PUSH0 DUP1 REVERT JUMPDEST POP JUMP JUMPDEST PUSH0 DUP2 CALLDATALOAD SWAP1 POP PUSH2 0x80D DUP2 PUSH2 0x7E9 JUMP JUMPDEST SWAP3 SWAP2 POP POP JUMP JUMPDEST PUSH0 PUSH1 0x80 DUP3 DUP5 SUB SLT ISZERO PUSH2 0x828 JUMPI PUSH2 0x827 PUSH2 0x7E1 JUMP JUMPDEST JUMPDEST PUSH2 0x832 PUSH1 0x80 PUSH2 0x50F JUMP JUMPDEST SWAP1 POP PUSH0 DUP3 ADD CALLDATALOAD PUSH8 0xFFFFFFFFFFFFFFFF DUP2 GT ISZERO PUSH2 0x851 JUMPI PUSH2 0x850 PUSH2 0x7E5 JUMP JUMPDEST JUMPDEST PUSH2 0x85D DUP5 DUP3 DUP6 ADD PUSH2 0x5A8 JUMP JUMPDEST PUSH0 DUP4 ADD MSTORE POP PUSH1 0x20 PUSH2 0x870 DUP5 DUP3 DUP6 ADD PUSH2 0x485 JUMP JUMPDEST PUSH1 0x20 DUP4 ADD MSTORE POP PUSH1 0x40 PUSH2 0x884 DUP5 DUP3 DUP6 ADD PUSH2 0x485 JUMP JUMPDEST PUSH1 0x40 DUP4 ADD MSTORE POP PUSH1 0x60 PUSH2 0x898 DUP5 DUP3 DUP6 ADD PUSH2 0x7FF JUMP JUMPDEST PUSH1 0x60 DUP4 ADD MSTORE POP SWAP3 SWAP2 POP POP JUMP JUMPDEST PUSH0 DUP1 PUSH1 0x40 DUP4 DUP6 SUB SLT ISZERO PUSH2 0x8BA JUMPI PUSH2 0x8B9 PUSH2 0x45E JUMP JUMPDEST JUMPDEST PUSH0 PUSH2 0x8C7 DUP6 DUP3 DUP7 ADD PUSH2 0x485 JUMP JUMPDEST SWAP3 POP POP PUSH1 0x20 DUP4 ADD CALLDATALOAD PUSH8 0xFFFFFFFFFFFFFFFF DUP2 GT ISZERO PUSH2 0x8E8 JUMPI PUSH2 0x8E7 PUSH2 0x462 JUMP JUMPDEST JUMPDEST PUSH2 0x8F4 DUP6 DUP3 DUP7 ADD PUSH2 0x813 JUMP JUMPDEST SWAP2 POP POP SWAP3 POP SWAP3 SWAP1 POP JUMP JUMPDEST PUSH32 0x4E487B7100000000000000000000000000000000000000000000000000000000 PUSH0 MSTORE PUSH1 0x22 PUSH1 0x4 MSTORE PUSH1 0x24 PUSH0 REVERT JUMPDEST PUSH0 PUSH1 0x2 DUP3 DIV SWAP1 POP PUSH1 0x1 DUP3 AND DUP1 PUSH2 0x942 JUMPI PUSH1 0x7F DUP3 AND SWAP2 POP JUMPDEST PUSH1 0x20 DUP3 LT DUP2 SUB PUSH2 0x955 JUMPI PUSH2 0x954 PUSH2 0x8FE JUMP JUMPDEST JUMPDEST POP SWAP2 SWAP1 POP JUMP JUMPDEST PUSH0 DUP2 SWAP1 POP DUP2 PUSH0 MSTORE PUSH1 0x20 PUSH0 KECCAK256 SWAP1 POP SWAP2 SWAP1 POP JUMP JUMPDEST PUSH0 PUSH1 0x20 PUSH1 0x1F DUP4 ADD DIV SWAP1 POP SWAP2 SWAP1 POP JUMP JUMPDEST PUSH0 DUP3 DUP3 SHL SWAP1 POP SWAP3 SWAP2 POP POP JUMP JUMPDEST PUSH0 PUSH1 0x8 DUP4 MUL PUSH2 0x9B7 PUSH32 0xFFFFFFFFFFFFFFFFFFFFFFFFFFFFFFFFFFFFFFFFFFFFFFFFFFFFFFFFFFFFFFFF DUP3 PUSH2 0x97C JUMP JUMPDEST PUSH2 0x9C1 DUP7 DUP4 PUSH2 0x97C JUMP JUMPDEST SWAP6 POP DUP1 NOT DUP5 AND SWAP4 POP DUP1 DUP7 AND DUP5 OR SWAP3 POP POP POP SWAP4 SWAP3 POP POP POP JUMP JUMPDEST PUSH0 DUP2 SWAP1 POP SWAP2 SWAP1 POP JUMP JUMPDEST PUSH0 PUSH2 0x9FC PUSH2 0x9F7 PUSH2 0x9F2 DUP5 PUSH2 0x466 JUMP JUMPDEST PUSH2 0x9D9 JUMP JUMPDEST PUSH2 0x466 JUMP JUMPDEST SWAP1 POP SWAP2 SWAP1 POP JUMP JUMPDEST PUSH0 DUP2 SWAP1 POP SWAP2 SWAP1 POP JUMP JUMPDEST PUSH2 0xA15 DUP4 PUSH2 0x9E2 JUMP JUMPDEST PUSH2 0xA29 PUSH2 0xA21 DUP3 PUSH2 0xA03 JUMP JUMPDEST DUP5 DUP5 SLOAD PUSH2 0x988 JUMP JUMPDEST DUP3 SSTORE POP POP POP POP JUMP JUMPDEST PUSH0 SWAP1 JUMP JUMPDEST PUSH2 0xA3D PUSH2 0xA31 JUMP JUMPDEST PUSH2 0xA48 DUP2 DUP5 DUP5 PUSH2 0xA0C JUMP JUMPDEST POP POP POP JUMP JUMPDEST JUMPDEST DUP2 DUP2 LT ISZERO PUSH2 0xA6B JUMPI PUSH2 0xA60 PUSH0 DUP3 PUSH2 0xA35 JUMP JUMPDEST PUSH1 0x1 DUP2 ADD SWAP1 POP PUSH2 0xA4E JUMP JUMPDEST POP POP JUMP JUMPDEST PUSH1 0x1F DUP3 GT ISZERO PUSH2 0xAB0 JUMPI PUSH2 0xA81 DUP2 PUSH2 0x95B JUMP JUMPDEST PUSH2 0xA8A DUP5 PUSH2 0x96D JUMP JUMPDEST DUP2 ADD PUSH1 0x20 DUP6 LT ISZERO PUSH2 0xA99 JUMPI DUP2 SWAP1 POP JUMPDEST PUSH2 0xAAD PUSH2 0xAA5 DUP6 PUSH2 0x96D JUMP JUMPDEST DUP4 ADD DUP3 PUSH2 0xA4D JUMP JUMPDEST POP POP JUMPDEST POP POP POP JUMP JUMPDEST PUSH0 DUP3 DUP3 SHR SWAP1 POP SWAP3 SWAP2 POP POP JUMP JUMPDEST PUSH0 PUSH2 0xAD0 PUSH0 NOT DUP5 PUSH1 0x8 MUL PUSH2 0xAB5 JUMP JUMPDEST NOT DUP1 DUP4 AND SWAP2 POP POP SWAP3 SWAP2 POP POP JUMP JUMPDEST PUSH0 PUSH2 0xAE8 DUP4 DUP4 PUSH2 0xAC1 JUMP JUMPDEST SWAP2 POP DUP3 PUSH1 0x2 MUL DUP3 OR SWAP1 POP SWAP3 SWAP2 POP POP JUMP JUMPDEST PUSH2 0xB01 DUP3 PUSH2 0x680 JUMP JUMPDEST PUSH8 0xFFFFFFFFFFFFFFFF DUP2 GT ISZERO PUSH2 0xB1A JUMPI PUSH2 0xB19 PUSH2 0x4B1 JUMP JUMPDEST JUMPDEST PUSH2 0xB24 DUP3 SLOAD PUSH2 0x92B JUMP JUMPDEST PUSH2 0xB2F DUP3 DUP3 DUP6 PUSH2 0xA6F JUMP JUMPDEST PUSH0 PUSH1 0x20 SWAP1 POP PUSH1 0x1F DUP4 GT PUSH1 0x1 DUP2 EQ PUSH2 0xB60 JUMPI PUSH0 DUP5 ISZERO PUSH2 0xB4E JUMPI DUP3 DUP8 ADD MLOAD SWAP1 POP JUMPDEST PUSH2 0xB58 DUP6 DUP3 PUSH2 0xADD JUMP JUMPDEST DUP7 SSTORE POP PUSH2 0xBBF JUMP JUMPDEST PUSH1 0x1F NOT DUP5 AND PUSH2 0xB6E DUP7 PUSH2 0x95B JUMP JUMPDEST PUSH0 JUMPDEST DUP3 DUP2 LT ISZERO PUSH2 0xB95 JUMPI DUP5 DUP10 ADD MLOAD DUP3 SSTORE PUSH1 0x1 DUP3 ADD SWAP2 POP PUSH1 0x20 DUP6 ADD SWAP5 POP PUSH1 0x20 DUP2 ADD SWAP1 POP PUSH2 0xB70 JUMP JUMPDEST DUP7 DUP4 LT ISZERO PUSH2 0xBB2 JUMPI DUP5 DUP10 ADD MLOAD PUSH2 0xBAE PUSH1 0x1F DUP10 AND DUP3 PUSH2 0xAC1 JUMP JUMPDEST DUP4 SSTORE POP JUMPDEST PUSH1 0x1 PUSH1 0x2 DUP9 MUL ADD DUP9 SSTORE POP POP POP JUMPDEST POP POP POP POP POP POP JUMP JUMPDEST PUSH32 0x4E487B7100000000000000000000000000000000000000000000000000000000 PUSH0 MSTORE PUSH1 0x11 PUSH1 0x4 MSTORE PUSH1 0x24 PUSH0 REVERT JUMPDEST PUSH0 PUSH2 0xBFE DUP3 PUSH2 0x466 JUMP JUMPDEST SWAP2 POP PUSH32 0xFFFFFFFFFFFFFFFFFFFFFFFFFFFFFFFFFFFFFFFFFFFFFFFFFFFFFFFFFFFFFFFF DUP3 SUB PUSH2 0xC30 JUMPI PUSH2 0xC2F PUSH2 0xBC7 JUMP JUMPDEST JUMPDEST PUSH1 0x1 DUP3 ADD SWAP1 POP SWAP2 SWAP1 POP JUMP JUMPDEST PUSH0 DUP2 SWAP1 POP SWAP3 SWAP2 POP POP JUMP JUMPDEST PUSH32 0x4F6E6C7920636F6E7472616374206F776E65722063616E000000000000000000 PUSH0 DUP3 ADD MSTORE POP JUMP JUMPDEST PUSH0 PUSH2 0xC79 PUSH1 0x17 DUP4 PUSH2 0xC3B JUMP JUMPDEST SWAP2 POP PUSH2 0xC84 DUP3 PUSH2 0xC45 JUMP JUMPDEST PUSH1 0x17 DUP3 ADD SWAP1 POP SWAP2 SWAP1 POP JUMP JUMPDEST PUSH0 PUSH2 0xC99 DUP3 PUSH2 0x680 JUMP JUMPDEST PUSH2 0xCA3 DUP2 DUP6 PUSH2 0xC3B JUMP JUMPDEST SWAP4 POP PUSH2 0xCB3 DUP2 DUP6 PUSH1 0x20 DUP7 ADD PUSH2 0x69A JUMP JUMPDEST DUP1 DUP5 ADD SWAP2 POP POP SWAP3 SWAP2 POP POP JUMP JUMPDEST PUSH0 PUSH2 0xCC9 DUP3 PUSH2 0xC6D JUMP JUMPDEST SWAP2 POP PUSH2 0xCD5 DUP3 DUP5 PUSH2 0xC8F JUMP JUMPDEST SWAP2 POP DUP2 SWAP1 POP SWAP3 SWAP2 POP POP JUMP JUMPDEST PUSH0 DUP3 DUP3 MSTORE PUSH1 0x20 DUP3 ADD SWAP1 POP SWAP3 SWAP2 POP POP JUMP JUMPDEST PUSH0 PUSH2 0xCFA DUP3 PUSH2 0x680 JUMP JUMPDEST PUSH2 0xD04 DUP2 DUP6 PUSH2 0xCE0 JUMP JUMPDEST SWAP4 POP PUSH2 0xD14 DUP2 DUP6 PUSH1 0x20 DUP7 ADD PUSH2 0x69A JUMP JUMPDEST PUSH2 0xD1D DUP2 PUSH2 0x4A1 JUMP JUMPDEST DUP5 ADD SWAP2 POP POP SWAP3 SWAP2 POP POP JUMP JUMPDEST PUSH0 PUSH1 0x20 DUP3 ADD SWAP1 POP DUP2 DUP2 SUB PUSH0 DUP4 ADD MSTORE PUSH2 0xD40 DUP2 DUP5 PUSH2 0xCF0 JUMP JUMPDEST SWAP1 POP SWAP3 SWAP2 POP POP JUMP JUMPDEST PUSH32 0x4F7264657220646F6573206E6F74206578697374000000000000000000000000 PUSH0 DUP3 ADD MSTORE POP JUMP JUMPDEST PUSH0 PUSH2 0xD7C PUSH1 0x14 DUP4 PUSH2 0xCE0 JUMP JUMPDEST SWAP2 POP PUSH2 0xD87 DUP3 PUSH2 0xD48 JUMP JUMPDEST PUSH1 0x20 DUP3 ADD SWAP1 POP SWAP2 SWAP1 POP JUMP JUMPDEST PUSH0 PUSH1 0x20 DUP3 ADD SWAP1 POP DUP2 DUP2 SUB PUSH0 DUP4 ADD MSTORE PUSH2 0xDA9 DUP2 PUSH2 0xD70 JUMP JUMPDEST SWAP1 POP SWAP2 SWAP1 POP JUMP INVALID LOG2 PUSH5 0x6970667358 0x22 SLT KECCAK256 0xE4 0x28 DUP5 0xD0 0xE9 0xB9 LOG1 STATICCALL PUSH23 0x1A847DBCE1DDCB9C3FD80AC9C84BD22A1A1B90442B5FAF PUSH5 0x736F6C6343 STOP ADDMOD NOT STOP CALLER "
				},
				"gasEstimates": {
					"creation": {
						"codeDepositCost": "711600",
						"executionCost": "infinite",
						"totalCost": "infinite"
					},
					"external": {
						"create_order(uint256,string,uint256,uint256)": "infinite",
						"owner()": "2527",
						"test(uint256)": "infinite",
						"update_order(uint256,(string,uint256,uint256,bool))": "infinite"
					}
				},
				"methodIdentifiers": {
					"create_order(uint256,string,uint256,uint256)": "2832686f",
					"owner()": "8da5cb5b",
					"test(uint256)": "29e99f07",
					"update_order(uint256,(string,uint256,uint256,bool))": "dc1fdba7"
				}
			},
			"storageLayout": {
				"storage": [
					{
						"astId": 57,
						"contract": "src/State/AccountState.sol:AccountState",
						"label": "owner",
						"offset": 0,
						"slot": "0",
						"type": "t_address"
					},
					{
						"astId": 59,
						"contract": "src/State/AccountState.sol:AccountState",
						"label": "total",
						"offset": 0,
						"slot": "1",
						"type": "t_uint256"
					},
					{
						"astId": 73,
						"contract": "src/State/AccountState.sol:AccountState",
						"label": "orders",
						"offset": 0,
						"slot": "2",
						"type": "t_mapping(t_uint256,t_struct(Order)68_storage)"
					}
				],
				"types": {
					"t_address": {
						"encoding": "inplace",
						"label": "address",
						"numberOfBytes": "20"
					},
					"t_bool": {
						"encoding": "inplace",
						"label": "bool",
						"numberOfBytes": "1"
					},
					"t_mapping(t_uint256,t_struct(Order)68_storage)": {
						"encoding": "mapping",
						"key": "t_uint256",
						"label": "mapping(uint256 => struct AccountState.Order)",
						"numberOfBytes": "32",
						"value": "t_struct(Order)68_storage"
					},
					"t_string_storage": {
						"encoding": "bytes",
						"label": "string",
						"numberOfBytes": "32"
					},
					"t_struct(Order)68_storage": {
						"encoding": "inplace",
						"label": "struct AccountState.Order",
						"members": [
							{
								"astId": 61,
								"contract": "src/State/AccountState.sol:AccountState",
								"label": "token",
								"offset": 0,
								"slot": "0",
								"type": "t_string_storage"
							},
							{
								"astId": 63,
								"contract": "src/State/AccountState.sol:AccountState",
								"label": "value",
								"offset": 0,
								"slot": "1",
								"type": "t_uint256"
							},
							{
								"astId": 65,
								"contract": "src/State/AccountState.sol:AccountState",
								"label": "price",
								"offset": 0,
								"slot": "2",
								"type": "t_uint256"
							},
							{
								"astId": 67,
								"contract": "src/State/AccountState.sol:AccountState",
								"label": "existed",
								"offset": 0,
								"slot": "3",
								"type": "t_bool"
							}
						],
						"numberOfBytes": "128"
					},
					"t_uint256": {
						"encoding": "inplace",
						"label": "uint256",
						"numberOfBytes": "32"
					}
				}
			},
			"userdoc": {
				"kind": "user",
				"methods": {},
				"version": 1
			}
		}
	}
}